{
  "contractName": "EventAdmins",
  "abi": [
    {
      "anonymous": false,
      "inputs": [
        {
          "indexed": true,
          "internalType": "address",
          "name": "previousOwner",
          "type": "address"
        },
        {
          "indexed": true,
          "internalType": "address",
          "name": "newOwner",
          "type": "address"
        }
      ],
      "name": "OwnershipTransferred",
      "type": "event"
    },
    {
      "anonymous": false,
      "inputs": [
        {
          "indexed": true,
          "internalType": "bytes32",
          "name": "role",
          "type": "bytes32"
        },
        {
          "indexed": true,
          "internalType": "bytes32",
          "name": "previousAdminRole",
          "type": "bytes32"
        },
        {
          "indexed": true,
          "internalType": "bytes32",
          "name": "newAdminRole",
          "type": "bytes32"
        }
      ],
      "name": "RoleAdminChanged",
      "type": "event"
    },
    {
      "anonymous": false,
      "inputs": [
        {
          "indexed": true,
          "internalType": "bytes32",
          "name": "role",
          "type": "bytes32"
        },
        {
          "indexed": true,
          "internalType": "address",
          "name": "account",
          "type": "address"
        },
        {
          "indexed": true,
          "internalType": "address",
          "name": "sender",
          "type": "address"
        }
      ],
      "name": "RoleGranted",
      "type": "event"
    },
    {
      "anonymous": false,
      "inputs": [
        {
          "indexed": true,
          "internalType": "bytes32",
          "name": "role",
          "type": "bytes32"
        },
        {
          "indexed": true,
          "internalType": "address",
          "name": "account",
          "type": "address"
        },
        {
          "indexed": true,
          "internalType": "address",
          "name": "sender",
          "type": "address"
        }
      ],
      "name": "RoleRevoked",
      "type": "event"
    },
    {
      "inputs": [],
      "name": "DEFAULT_ADMIN_ROLE",
      "outputs": [
        {
          "internalType": "bytes32",
          "name": "",
          "type": "bytes32"
        }
      ],
      "stateMutability": "view",
      "type": "function"
    },
    {
      "inputs": [],
      "name": "EVENT_ADMIN_ROLE",
      "outputs": [
        {
          "internalType": "bytes32",
          "name": "",
          "type": "bytes32"
        }
      ],
      "stateMutability": "view",
      "type": "function"
    },
    {
      "inputs": [],
      "name": "destroy",
      "outputs": [],
      "stateMutability": "nonpayable",
      "type": "function"
    },
    {
      "inputs": [
        {
          "internalType": "address",
          "name": "_recipient",
          "type": "address"
        }
      ],
      "name": "destroyAndSend",
      "outputs": [],
      "stateMutability": "nonpayable",
      "type": "function"
    },
    {
      "inputs": [
        {
          "internalType": "bytes32",
          "name": "role",
          "type": "bytes32"
        }
      ],
      "name": "getRoleAdmin",
      "outputs": [
        {
          "internalType": "bytes32",
          "name": "",
          "type": "bytes32"
        }
      ],
      "stateMutability": "view",
      "type": "function"
    },
    {
      "inputs": [
        {
          "internalType": "bytes32",
          "name": "role",
          "type": "bytes32"
        },
        {
          "internalType": "uint256",
          "name": "index",
          "type": "uint256"
        }
      ],
      "name": "getRoleMember",
      "outputs": [
        {
          "internalType": "address",
          "name": "",
          "type": "address"
        }
      ],
      "stateMutability": "view",
      "type": "function"
    },
    {
      "inputs": [
        {
          "internalType": "bytes32",
          "name": "role",
          "type": "bytes32"
        }
      ],
      "name": "getRoleMemberCount",
      "outputs": [
        {
          "internalType": "uint256",
          "name": "",
          "type": "uint256"
        }
      ],
      "stateMutability": "view",
      "type": "function"
    },
    {
      "inputs": [
        {
          "internalType": "bytes32",
          "name": "role",
          "type": "bytes32"
        }
      ],
      "name": "getRoleMembers",
      "outputs": [
        {
          "internalType": "address[]",
          "name": "",
          "type": "address[]"
        }
      ],
      "stateMutability": "view",
      "type": "function"
    },
    {
      "inputs": [
        {
          "internalType": "bytes32",
          "name": "role",
          "type": "bytes32"
        },
        {
          "internalType": "address",
          "name": "account",
          "type": "address"
        }
      ],
      "name": "grantRole",
      "outputs": [],
      "stateMutability": "nonpayable",
      "type": "function"
    },
    {
      "inputs": [
        {
          "internalType": "bytes32",
          "name": "role",
          "type": "bytes32"
        },
        {
          "internalType": "address",
          "name": "account",
          "type": "address"
        }
      ],
      "name": "hasRole",
      "outputs": [
        {
          "internalType": "bool",
          "name": "",
          "type": "bool"
        }
      ],
      "stateMutability": "view",
      "type": "function"
    },
    {
      "inputs": [],
      "name": "owner",
      "outputs": [
        {
          "internalType": "address",
          "name": "",
          "type": "address"
        }
      ],
      "stateMutability": "view",
      "type": "function"
    },
    {
      "inputs": [],
      "name": "renounceOwnership",
      "outputs": [],
      "stateMutability": "nonpayable",
      "type": "function"
    },
    {
      "inputs": [
        {
          "internalType": "bytes32",
          "name": "role",
          "type": "bytes32"
        },
        {
          "internalType": "address",
          "name": "account",
          "type": "address"
        }
      ],
      "name": "renounceRole",
      "outputs": [],
      "stateMutability": "nonpayable",
      "type": "function"
    },
    {
      "inputs": [
        {
          "internalType": "bytes32",
          "name": "role",
          "type": "bytes32"
        },
        {
          "internalType": "address",
          "name": "account",
          "type": "address"
        }
      ],
      "name": "revokeRole",
      "outputs": [],
      "stateMutability": "nonpayable",
      "type": "function"
    },
    {
      "inputs": [
        {
          "internalType": "bytes4",
          "name": "interfaceId",
          "type": "bytes4"
        }
      ],
      "name": "supportsInterface",
      "outputs": [
        {
          "internalType": "bool",
          "name": "",
          "type": "bool"
        }
      ],
      "stateMutability": "view",
      "type": "function"
    },
    {
      "inputs": [
        {
          "internalType": "address",
          "name": "newOwner",
          "type": "address"
        }
      ],
      "name": "transferOwnership",
      "outputs": [],
      "stateMutability": "nonpayable",
      "type": "function"
    },
    {
      "inputs": [
        {
          "internalType": "address[]",
          "name": "addressList",
          "type": "address[]"
        }
      ],
      "name": "addAdmins",
      "outputs": [],
      "stateMutability": "nonpayable",
      "type": "function"
    },
    {
      "inputs": [
        {
          "internalType": "address[]",
          "name": "addressList",
          "type": "address[]"
        }
      ],
      "name": "removeAdmins",
      "outputs": [],
      "stateMutability": "nonpayable",
      "type": "function"
    },
    {
      "inputs": [],
      "name": "getAdminList",
      "outputs": [
        {
          "internalType": "address[]",
          "name": "",
          "type": "address[]"
        }
      ],
      "stateMutability": "view",
      "type": "function"
    },
    {
      "inputs": [],
      "name": "numOfAdmins",
      "outputs": [
        {
          "internalType": "uint256",
          "name": "",
          "type": "uint256"
        }
      ],
      "stateMutability": "view",
      "type": "function"
    },
    {
      "inputs": [
        {
          "internalType": "address",
          "name": "_addr",
          "type": "address"
        }
      ],
      "name": "isAdmin",
      "outputs": [
        {
          "internalType": "bool",
          "name": "",
          "type": "bool"
        }
      ],
      "stateMutability": "view",
      "type": "function"
    }
  ],
  "bytecode": "0x608060405234801561001057600080fd5b5061002d61002261003260201b60201c565b61003a60201b60201c565b610100565b600033905090565b6000600260009054906101000a900473ffffffffffffffffffffffffffffffffffffffff16905081600260006101000a81548173ffffffffffffffffffffffffffffffffffffffff021916908373ffffffffffffffffffffffffffffffffffffffff1602179055508173ffffffffffffffffffffffffffffffffffffffff168173ffffffffffffffffffffffffffffffffffffffff167f8be0079c531659141344cd1fd0a4f28419497f9722a3daafe3b4186f6b6457e060405160405180910390a35050565b6120e480620001106000396000f3fe608060405234801561001057600080fd5b50600436106101375760003560e01c80639010d07c116100b8578063ca15c8731161007c578063ca15c8731461033a578063d547741f1461036a578063d9f774fc14610386578063eb6ecc36146103a4578063f2fde38b146103c2578063f5074f41146103de57610137565b80639010d07c1461027057806391d14854146102a05780639c54df64146102d0578063a217fddf146102ec578063a3246ad31461030a57610137565b806336568abe116100ff57806336568abe14610206578063377e11e014610222578063715018a61461023e57806383197ef0146102485780638da5cb5b1461025257610137565b80630191dc921461013c57806301ffc9a71461015a578063248a9ca31461018a57806324d7806c146101ba5780632f2ff15d146101ea575b600080fd5b6101446103fa565b60405161015191906115bc565b60405180910390f35b610174600480360381019061016f9190611643565b61042a565b604051610181919061168b565b60405180910390f35b6101a4600480360381019061019f91906116dc565b6104a4565b6040516101b19190611718565b60405180910390f35b6101d460048036038101906101cf9190611791565b6104c3565b6040516101e1919061168b565b60405180910390f35b61020460048036038101906101ff91906117be565b610529565b005b610220600480360381019061021b91906117be565b610552565b005b61023c60048036038101906102379190611957565b6105d5565b005b6102466106b8565b005b610250610740565b005b61025a6107e6565b60405161026791906119af565b60405180910390f35b61028a600480360381019061028591906119f6565b610810565b60405161029791906119af565b60405180910390f35b6102ba60048036038101906102b591906117be565b61083f565b6040516102c7919061168b565b60405180910390f35b6102ea60048036038101906102e59190611957565b6108a9565b005b6102f461098c565b6040516103019190611718565b60405180910390f35b610324600480360381019061031f91906116dc565b610993565b6040516103319190611af4565b60405180910390f35b610354600480360381019061034f91906116dc565b610a4a565b60405161036191906115bc565b60405180910390f35b610384600480360381019061037f91906117be565b610a6e565b005b61038e610a97565b60405161039b9190611af4565b60405180910390f35b6103ac610ac7565b6040516103b99190611718565b60405180910390f35b6103dc60048036038101906103d79190611791565b610aeb565b005b6103f860048036038101906103f39190611791565b610be3565b005b60006104257f7fc6f12af65cbd9e6927effbd7fbd73009649c9b6f017ec27b678a190439671a610a4a565b905090565b60007f5a05180f000000000000000000000000000000000000000000000000000000007bffffffffffffffffffffffffffffffffffffffffffffffffffffffff1916827bffffffffffffffffffffffffffffffffffffffffffffffffffffffff1916148061049d575061049c82610c7d565b5b9050919050565b6000806000838152602001908152602001600020600101549050919050565b60006104ef7f7fc6f12af65cbd9e6927effbd7fbd73009649c9b6f017ec27b678a190439671a8361083f565b6104f857600080fd5b6105227f7fc6f12af65cbd9e6927effbd7fbd73009649c9b6f017ec27b678a190439671a8361083f565b9050919050565b610532826104a4565b6105438161053e610cf7565b610cff565b61054d8383610d9c565b505050565b61055a610cf7565b73ffffffffffffffffffffffffffffffffffffffff168173ffffffffffffffffffffffffffffffffffffffff16146105c7576040517f08c379a00000000000000000000000000000000000000000000000000000000081526004016105be90611b99565b60405180910390fd5b6105d18282610dd0565b5050565b6105dd610cf7565b73ffffffffffffffffffffffffffffffffffffffff166105fb6107e6565b73ffffffffffffffffffffffffffffffffffffffff1614610651576040517f08c379a000000000000000000000000000000000000000000000000000000000815260040161064890611c05565b60405180910390fd5b60005b81518110156106b4576106a17f7fc6f12af65cbd9e6927effbd7fbd73009649c9b6f017ec27b678a190439671a83838151811061069457610693611c25565b5b6020026020010151610dd0565b80806106ac90611c83565b915050610654565b5050565b6106c0610cf7565b73ffffffffffffffffffffffffffffffffffffffff166106de6107e6565b73ffffffffffffffffffffffffffffffffffffffff1614610734576040517f08c379a000000000000000000000000000000000000000000000000000000000815260040161072b90611c05565b60405180910390fd5b61073e6000610e04565b565b610748610cf7565b73ffffffffffffffffffffffffffffffffffffffff166107666107e6565b73ffffffffffffffffffffffffffffffffffffffff16146107bc576040517f08c379a00000000000000000000000000000000000000000000000000000000081526004016107b390611c05565b60405180910390fd5b60006107c66107e6565b905060008190508073ffffffffffffffffffffffffffffffffffffffff16ff5b6000600260009054906101000a900473ffffffffffffffffffffffffffffffffffffffff16905090565b60006108378260016000868152602001908152602001600020610eca90919063ffffffff16565b905092915050565b600080600084815260200190815260200160002060000160008373ffffffffffffffffffffffffffffffffffffffff1673ffffffffffffffffffffffffffffffffffffffff16815260200190815260200160002060009054906101000a900460ff16905092915050565b6108b1610cf7565b73ffffffffffffffffffffffffffffffffffffffff166108cf6107e6565b73ffffffffffffffffffffffffffffffffffffffff1614610925576040517f08c379a000000000000000000000000000000000000000000000000000000000815260040161091c90611c05565b60405180910390fd5b60005b8151811015610988576109757f7fc6f12af65cbd9e6927effbd7fbd73009649c9b6f017ec27b678a190439671a83838151811061096857610967611c25565b5b6020026020010151610d9c565b808061098090611c83565b915050610928565b5050565b6000801b81565b60608060005b6109b460016000868152602001908152602001600020610ee4565b811015610a40576109e08160016000878152602001908152602001600020610eca90919063ffffffff16565b8282815181106109f3576109f2611c25565b5b602002602001019073ffffffffffffffffffffffffffffffffffffffff16908173ffffffffffffffffffffffffffffffffffffffff16815250508080610a3890611c83565b915050610999565b5080915050919050565b6000610a6760016000848152602001908152602001600020610ee4565b9050919050565b610a77826104a4565b610a8881610a83610cf7565b610cff565b610a928383610dd0565b505050565b6060610ac27f7fc6f12af65cbd9e6927effbd7fbd73009649c9b6f017ec27b678a190439671a610993565b905090565b7f7fc6f12af65cbd9e6927effbd7fbd73009649c9b6f017ec27b678a190439671a81565b610af3610cf7565b73ffffffffffffffffffffffffffffffffffffffff16610b116107e6565b73ffffffffffffffffffffffffffffffffffffffff1614610b67576040517f08c379a0000000000000000000000000000000000000000000000000000000008152600401610b5e90611c05565b60405180910390fd5b600073ffffffffffffffffffffffffffffffffffffffff168173ffffffffffffffffffffffffffffffffffffffff161415610bd7576040517f08c379a0000000000000000000000000000000000000000000000000000000008152600401610bce90611d3e565b60405180910390fd5b610be081610e04565b50565b610beb610cf7565b73ffffffffffffffffffffffffffffffffffffffff16610c096107e6565b73ffffffffffffffffffffffffffffffffffffffff1614610c5f576040517f08c379a0000000000000000000000000000000000000000000000000000000008152600401610c5690611c05565b60405180910390fd5b60008190508073ffffffffffffffffffffffffffffffffffffffff16ff5b60007f7965db0b000000000000000000000000000000000000000000000000000000007bffffffffffffffffffffffffffffffffffffffffffffffffffffffff1916827bffffffffffffffffffffffffffffffffffffffffffffffffffffffff19161480610cf05750610cef82610ef9565b5b9050919050565b600033905090565b610d09828261083f565b610d9857610d2e8173ffffffffffffffffffffffffffffffffffffffff166014610f63565b610d3c8360001c6020610f63565b604051602001610d4d929190611e70565b6040516020818303038152906040526040517f08c379a0000000000000000000000000000000000000000000000000000000008152600401610d8f9190611ee3565b60405180910390fd5b5050565b610da6828261119f565b610dcb816001600085815260200190815260200160002061127f90919063ffffffff16565b505050565b610dda82826112af565b610dff816001600085815260200190815260200160002061139090919063ffffffff16565b505050565b6000600260009054906101000a900473ffffffffffffffffffffffffffffffffffffffff16905081600260006101000a81548173ffffffffffffffffffffffffffffffffffffffff021916908373ffffffffffffffffffffffffffffffffffffffff1602179055508173ffffffffffffffffffffffffffffffffffffffff168173ffffffffffffffffffffffffffffffffffffffff167f8be0079c531659141344cd1fd0a4f28419497f9722a3daafe3b4186f6b6457e060405160405180910390a35050565b6000610ed983600001836113c0565b60001c905092915050565b6000610ef2826000016113eb565b9050919050565b60007f01ffc9a7000000000000000000000000000000000000000000000000000000007bffffffffffffffffffffffffffffffffffffffffffffffffffffffff1916827bffffffffffffffffffffffffffffffffffffffffffffffffffffffff1916149050919050565b606060006002836002610f769190611f05565b610f809190611f5f565b67ffffffffffffffff811115610f9957610f98611814565b5b6040519080825280601f01601f191660200182016040528015610fcb5781602001600182028036833780820191505090505b5090507f30000000000000000000000000000000000000000000000000000000000000008160008151811061100357611002611c25565b5b60200101907effffffffffffffffffffffffffffffffffffffffffffffffffffffffffffff1916908160001a9053507f78000000000000000000000000000000000000000000000000000000000000008160018151811061106757611066611c25565b5b60200101907effffffffffffffffffffffffffffffffffffffffffffffffffffffffffffff1916908160001a905350600060018460026110a79190611f05565b6110b19190611f5f565b90505b6001811115611151577f3031323334353637383961626364656600000000000000000000000000000000600f8616601081106110f3576110f2611c25565b5b1a60f81b82828151811061110a57611109611c25565b5b60200101907effffffffffffffffffffffffffffffffffffffffffffffffffffffffffffff1916908160001a905350600485901c94508061114a90611fb5565b90506110b4565b5060008414611195576040517f08c379a000000000000000000000000000000000000000000000000000000000815260040161118c9061202b565b60405180910390fd5b8091505092915050565b6111a9828261083f565b61127b57600160008084815260200190815260200160002060000160008373ffffffffffffffffffffffffffffffffffffffff1673ffffffffffffffffffffffffffffffffffffffff16815260200190815260200160002060006101000a81548160ff021916908315150217905550611220610cf7565b73ffffffffffffffffffffffffffffffffffffffff168173ffffffffffffffffffffffffffffffffffffffff16837f2f8788117e7eff1d82e926ec794901d17c78024a50270940304540a733656f0d60405160405180910390a45b5050565b60006112a7836000018373ffffffffffffffffffffffffffffffffffffffff1660001b6113fc565b905092915050565b6112b9828261083f565b1561138c57600080600084815260200190815260200160002060000160008373ffffffffffffffffffffffffffffffffffffffff1673ffffffffffffffffffffffffffffffffffffffff16815260200190815260200160002060006101000a81548160ff021916908315150217905550611331610cf7565b73ffffffffffffffffffffffffffffffffffffffff168173ffffffffffffffffffffffffffffffffffffffff16837ff6391f5c32d9c69d2a47ea670b442974b53935d1edc7fd64eb21e047a839171b60405160405180910390a45b5050565b60006113b8836000018373ffffffffffffffffffffffffffffffffffffffff1660001b61146c565b905092915050565b60008260000182815481106113d8576113d7611c25565b5b9060005260206000200154905092915050565b600081600001805490509050919050565b60006114088383611580565b611461578260000182908060018154018082558091505060019003906000526020600020016000909190919091505582600001805490508360010160008481526020019081526020016000208190555060019050611466565b600090505b92915050565b6000808360010160008481526020019081526020016000205490506000811461157457600060018261149e919061204b565b90506000600186600001805490506114b6919061204b565b90508181146115255760008660000182815481106114d7576114d6611c25565b5b90600052602060002001549050808760000184815481106114fb576114fa611c25565b5b90600052602060002001819055508387600101600083815260200190815260200160002081905550505b856000018054806115395761153861207f565b5b60019003818190600052602060002001600090559055856001016000868152602001908152602001600020600090556001935050505061157a565b60009150505b92915050565b600080836001016000848152602001908152602001600020541415905092915050565b6000819050919050565b6115b6816115a3565b82525050565b60006020820190506115d160008301846115ad565b92915050565b6000604051905090565b600080fd5b600080fd5b60007fffffffff0000000000000000000000000000000000000000000000000000000082169050919050565b611620816115eb565b811461162b57600080fd5b50565b60008135905061163d81611617565b92915050565b600060208284031215611659576116586115e1565b5b60006116678482850161162e565b91505092915050565b60008115159050919050565b61168581611670565b82525050565b60006020820190506116a0600083018461167c565b92915050565b6000819050919050565b6116b9816116a6565b81146116c457600080fd5b50565b6000813590506116d6816116b0565b92915050565b6000602082840312156116f2576116f16115e1565b5b6000611700848285016116c7565b91505092915050565b611712816116a6565b82525050565b600060208201905061172d6000830184611709565b92915050565b600073ffffffffffffffffffffffffffffffffffffffff82169050919050565b600061175e82611733565b9050919050565b61176e81611753565b811461177957600080fd5b50565b60008135905061178b81611765565b92915050565b6000602082840312156117a7576117a66115e1565b5b60006117b58482850161177c565b91505092915050565b600080604083850312156117d5576117d46115e1565b5b60006117e3858286016116c7565b92505060206117f48582860161177c565b9150509250929050565b600080fd5b6000601f19601f8301169050919050565b7f4e487b7100000000000000000000000000000000000000000000000000000000600052604160045260246000fd5b61184c82611803565b810181811067ffffffffffffffff8211171561186b5761186a611814565b5b80604052505050565b600061187e6115d7565b905061188a8282611843565b919050565b600067ffffffffffffffff8211156118aa576118a9611814565b5b602082029050602081019050919050565b600080fd5b60006118d36118ce8461188f565b611874565b905080838252602082019050602084028301858111156118f6576118f56118bb565b5b835b8181101561191f578061190b888261177c565b8452602084019350506020810190506118f8565b5050509392505050565b600082601f83011261193e5761193d6117fe565b5b813561194e8482602086016118c0565b91505092915050565b60006020828403121561196d5761196c6115e1565b5b600082013567ffffffffffffffff81111561198b5761198a6115e6565b5b61199784828501611929565b91505092915050565b6119a981611753565b82525050565b60006020820190506119c460008301846119a0565b92915050565b6119d3816115a3565b81146119de57600080fd5b50565b6000813590506119f0816119ca565b92915050565b60008060408385031215611a0d57611a0c6115e1565b5b6000611a1b858286016116c7565b9250506020611a2c858286016119e1565b9150509250929050565b600081519050919050565b600082825260208201905092915050565b6000819050602082019050919050565b611a6b81611753565b82525050565b6000611a7d8383611a62565b60208301905092915050565b6000602082019050919050565b6000611aa182611a36565b611aab8185611a41565b9350611ab683611a52565b8060005b83811015611ae7578151611ace8882611a71565b9750611ad983611a89565b925050600181019050611aba565b5085935050505092915050565b60006020820190508181036000830152611b0e8184611a96565b905092915050565b600082825260208201905092915050565b7f416363657373436f6e74726f6c3a2063616e206f6e6c792072656e6f756e636560008201527f20726f6c657320666f722073656c660000000000000000000000000000000000602082015250565b6000611b83602f83611b16565b9150611b8e82611b27565b604082019050919050565b60006020820190508181036000830152611bb281611b76565b9050919050565b7f4f776e61626c653a2063616c6c6572206973206e6f7420746865206f776e6572600082015250565b6000611bef602083611b16565b9150611bfa82611bb9565b602082019050919050565b60006020820190508181036000830152611c1e81611be2565b9050919050565b7f4e487b7100000000000000000000000000000000000000000000000000000000600052603260045260246000fd5b7f4e487b7100000000000000000000000000000000000000000000000000000000600052601160045260246000fd5b6000611c8e826115a3565b91507fffffffffffffffffffffffffffffffffffffffffffffffffffffffffffffffff821415611cc157611cc0611c54565b5b600182019050919050565b7f4f776e61626c653a206e6577206f776e657220697320746865207a65726f206160008201527f6464726573730000000000000000000000000000000000000000000000000000602082015250565b6000611d28602683611b16565b9150611d3382611ccc565b604082019050919050565b60006020820190508181036000830152611d5781611d1b565b9050919050565b600081905092915050565b7f416363657373436f6e74726f6c3a206163636f756e7420000000000000000000600082015250565b6000611d9f601783611d5e565b9150611daa82611d69565b601782019050919050565b600081519050919050565b60005b83811015611dde578082015181840152602081019050611dc3565b83811115611ded576000848401525b50505050565b6000611dfe82611db5565b611e088185611d5e565b9350611e18818560208601611dc0565b80840191505092915050565b7f206973206d697373696e6720726f6c6520000000000000000000000000000000600082015250565b6000611e5a601183611d5e565b9150611e6582611e24565b601182019050919050565b6000611e7b82611d92565b9150611e878285611df3565b9150611e9282611e4d565b9150611e9e8284611df3565b91508190509392505050565b6000611eb582611db5565b611ebf8185611b16565b9350611ecf818560208601611dc0565b611ed881611803565b840191505092915050565b60006020820190508181036000830152611efd8184611eaa565b905092915050565b6000611f10826115a3565b9150611f1b836115a3565b9250817fffffffffffffffffffffffffffffffffffffffffffffffffffffffffffffffff0483118215151615611f5457611f53611c54565b5b828202905092915050565b6000611f6a826115a3565b9150611f75836115a3565b9250827fffffffffffffffffffffffffffffffffffffffffffffffffffffffffffffffff03821115611faa57611fa9611c54565b5b828201905092915050565b6000611fc0826115a3565b91506000821415611fd457611fd3611c54565b5b600182039050919050565b7f537472696e67733a20686578206c656e67746820696e73756666696369656e74600082015250565b6000612015602083611b16565b915061202082611fdf565b602082019050919050565b6000602082019050818103600083015261204481612008565b9050919050565b6000612056826115a3565b9150612061836115a3565b92508282101561207457612073611c54565b5b828203905092915050565b7f4e487b7100000000000000000000000000000000000000000000000000000000600052603160045260246000fdfea26469706673582212201c08ce4fa50e8f0db7096cb893ed73e7e42c73665985cad255b3f6bf1a90a2df64736f6c634300080a0033",
  "immutableReferences": {},
  "source": "// SPDX-License-Identifier:MIT\npragma solidity ^0.8.0;\npragma abicoder v2;\n\nimport \"./OZ/AccessControlEnumerable.sol\";\nimport \"./OZ/Destructible.sol\";\n\ncontract EventAdmins is AccessControlEnumerable, Destructible{\n    bytes32 public constant EVENT_ADMIN_ROLE = keccak256(\"EVENT_ADMIN_ROLE\");\n\n    modifier onlyAdmin() {\n        require(hasRole(EVENT_ADMIN_ROLE, _msgSender()) || hasRole(DEFAULT_ADMIN_ROLE, _msgSender()), \"EventAdmin: must have event admin role to perform operation\");\n        _;\n    }\n    function addAdmins(address[] memory addressList) public onlyOwner{\n        for(uint i = 0; i < addressList.length; i++){\n            _grantRole(EVENT_ADMIN_ROLE, addressList[i]);\n        }\n    }\n    function removeAdmins(address[] memory addressList) public onlyOwner{\n        for(uint i = 0; i < addressList.length; i++){\n            _revokeRole(EVENT_ADMIN_ROLE, addressList[i]);\n        }\n    }\n    function getAdminList() view public returns(address[] memory){\n        return getRoleMembers(EVENT_ADMIN_ROLE);\n    }\n    function numOfAdmins() view public returns(uint){\n        return getRoleMemberCount(EVENT_ADMIN_ROLE);\n    }\n    function isAdmin(address _addr) public view returns(bool){\n        require(hasRole(EVENT_ADMIN_ROLE, _addr));\n        return hasRole(EVENT_ADMIN_ROLE, _addr);\n    }\n\n}",
  "sourcePath": "/Users/nerdjango/Documents/GitHub/noBlock-noParty/contracts/Admins.sol",
  "compiler": {
    "name": "solc",
    "version": "0.8.10+commit.fc410830.Emscripten.clang"
  },
  "schemaVersion": "3.4.3",
  "updatedAt": "2021-11-29T11:42:53.520Z",
  "devdoc": {
    "kind": "dev",
    "methods": {
      "destroy()": {
        "details": "Transfers the current balance to the owner and terminates the contract."
      },
      "getRoleAdmin(bytes32)": {
        "details": "Returns the admin role that controls `role`. See {grantRole} and {revokeRole}. To change a role's admin, use {_setRoleAdmin}."
      },
      "getRoleMember(bytes32,uint256)": {
        "details": "Returns one of the accounts that have `role`. `index` must be a value between 0 and {getRoleMemberCount}, non-inclusive. Role bearers are not sorted in any particular way, and their ordering may change at any point. WARNING: When using {getRoleMember} and {getRoleMemberCount}, make sure you perform all queries on the same block. See the following https://forum.openzeppelin.com/t/iterating-over-elements-on-enumerableset-in-openzeppelin-contracts/2296[forum post] for more information."
      },
      "getRoleMemberCount(bytes32)": {
        "details": "Returns the number of accounts that have `role`. Can be used together with {getRoleMember} to enumerate all bearers of a role."
      },
      "grantRole(bytes32,address)": {
        "details": "Grants `role` to `account`. If `account` had not been already granted `role`, emits a {RoleGranted} event. Requirements: - the caller must have ``role``'s admin role."
      },
      "hasRole(bytes32,address)": {
        "details": "Returns `true` if `account` has been granted `role`."
      },
      "owner()": {
        "details": "Returns the address of the current owner."
      },
      "renounceOwnership()": {
        "details": "Leaves the contract without owner. It will not be possible to call `onlyOwner` functions anymore. Can only be called by the current owner. NOTE: Renouncing ownership will leave the contract without an owner, thereby removing any functionality that is only available to the owner."
      },
      "renounceRole(bytes32,address)": {
        "details": "Revokes `role` from the calling account. Roles are often managed via {grantRole} and {revokeRole}: this function's purpose is to provide a mechanism for accounts to lose their privileges if they are compromised (such as when a trusted device is misplaced). If the calling account had been revoked `role`, emits a {RoleRevoked} event. Requirements: - the caller must be `account`."
      },
      "revokeRole(bytes32,address)": {
        "details": "Revokes `role` from `account`. If `account` had been granted `role`, emits a {RoleRevoked} event. Requirements: - the caller must have ``role``'s admin role."
      },
      "supportsInterface(bytes4)": {
        "details": "See {IERC165-supportsInterface}."
      },
      "transferOwnership(address)": {
        "details": "Transfers ownership of the contract to a new account (`newOwner`). Can only be called by the current owner."
      }
    },
    "version": 1
  },
  "userdoc": {
    "kind": "user",
    "methods": {},
    "version": 1
  }
}