{
  "contractName": "EventAdmins",
  "abi": [
    {
      "anonymous": false,
      "inputs": [
        {
          "indexed": true,
          "internalType": "address",
          "name": "previousOwner",
          "type": "address"
        },
        {
          "indexed": true,
          "internalType": "address",
          "name": "newOwner",
          "type": "address"
        }
      ],
      "name": "OwnershipTransferred",
      "type": "event"
    },
    {
      "anonymous": false,
      "inputs": [
        {
          "indexed": true,
          "internalType": "bytes32",
          "name": "role",
          "type": "bytes32"
        },
        {
          "indexed": true,
          "internalType": "bytes32",
          "name": "previousAdminRole",
          "type": "bytes32"
        },
        {
          "indexed": true,
          "internalType": "bytes32",
          "name": "newAdminRole",
          "type": "bytes32"
        }
      ],
      "name": "RoleAdminChanged",
      "type": "event"
    },
    {
      "anonymous": false,
      "inputs": [
        {
          "indexed": true,
          "internalType": "bytes32",
          "name": "role",
          "type": "bytes32"
        },
        {
          "indexed": true,
          "internalType": "address",
          "name": "account",
          "type": "address"
        },
        {
          "indexed": true,
          "internalType": "address",
          "name": "sender",
          "type": "address"
        }
      ],
      "name": "RoleGranted",
      "type": "event"
    },
    {
      "anonymous": false,
      "inputs": [
        {
          "indexed": true,
          "internalType": "bytes32",
          "name": "role",
          "type": "bytes32"
        },
        {
          "indexed": true,
          "internalType": "address",
          "name": "account",
          "type": "address"
        },
        {
          "indexed": true,
          "internalType": "address",
          "name": "sender",
          "type": "address"
        }
      ],
      "name": "RoleRevoked",
      "type": "event"
    },
    {
      "inputs": [],
      "name": "DEFAULT_ADMIN_ROLE",
      "outputs": [
        {
          "internalType": "bytes32",
          "name": "",
          "type": "bytes32"
        }
      ],
      "stateMutability": "view",
      "type": "function"
    },
    {
      "inputs": [],
      "name": "EVENT_ADMIN_ROLE",
      "outputs": [
        {
          "internalType": "bytes32",
          "name": "",
          "type": "bytes32"
        }
      ],
      "stateMutability": "view",
      "type": "function"
    },
    {
      "inputs": [],
      "name": "destroy",
      "outputs": [],
      "stateMutability": "nonpayable",
      "type": "function"
    },
    {
      "inputs": [
        {
          "internalType": "address",
          "name": "_recipient",
          "type": "address"
        }
      ],
      "name": "destroyAndSend",
      "outputs": [],
      "stateMutability": "nonpayable",
      "type": "function"
    },
    {
      "inputs": [
        {
          "internalType": "bytes32",
          "name": "role",
          "type": "bytes32"
        }
      ],
      "name": "getRoleAdmin",
      "outputs": [
        {
          "internalType": "bytes32",
          "name": "",
          "type": "bytes32"
        }
      ],
      "stateMutability": "view",
      "type": "function"
    },
    {
      "inputs": [
        {
          "internalType": "bytes32",
          "name": "role",
          "type": "bytes32"
        },
        {
          "internalType": "uint256",
          "name": "index",
          "type": "uint256"
        }
      ],
      "name": "getRoleMember",
      "outputs": [
        {
          "internalType": "address",
          "name": "",
          "type": "address"
        }
      ],
      "stateMutability": "view",
      "type": "function"
    },
    {
      "inputs": [
        {
          "internalType": "bytes32",
          "name": "role",
          "type": "bytes32"
        }
      ],
      "name": "getRoleMemberCount",
      "outputs": [
        {
          "internalType": "uint256",
          "name": "",
          "type": "uint256"
        }
      ],
      "stateMutability": "view",
      "type": "function"
    },
    {
      "inputs": [
        {
          "internalType": "bytes32",
          "name": "role",
          "type": "bytes32"
        }
      ],
      "name": "getRoleMembers",
      "outputs": [
        {
          "internalType": "address[]",
          "name": "",
          "type": "address[]"
        }
      ],
      "stateMutability": "view",
      "type": "function"
    },
    {
      "inputs": [
        {
          "internalType": "bytes32",
          "name": "role",
          "type": "bytes32"
        },
        {
          "internalType": "address",
          "name": "account",
          "type": "address"
        }
      ],
      "name": "grantRole",
      "outputs": [],
      "stateMutability": "nonpayable",
      "type": "function"
    },
    {
      "inputs": [
        {
          "internalType": "bytes32",
          "name": "role",
          "type": "bytes32"
        },
        {
          "internalType": "address",
          "name": "account",
          "type": "address"
        }
      ],
      "name": "hasRole",
      "outputs": [
        {
          "internalType": "bool",
          "name": "",
          "type": "bool"
        }
      ],
      "stateMutability": "view",
      "type": "function"
    },
    {
      "inputs": [],
      "name": "owner",
      "outputs": [
        {
          "internalType": "address",
          "name": "",
          "type": "address"
        }
      ],
      "stateMutability": "view",
      "type": "function"
    },
    {
      "inputs": [],
      "name": "renounceOwnership",
      "outputs": [],
      "stateMutability": "nonpayable",
      "type": "function"
    },
    {
      "inputs": [
        {
          "internalType": "bytes32",
          "name": "role",
          "type": "bytes32"
        },
        {
          "internalType": "address",
          "name": "account",
          "type": "address"
        }
      ],
      "name": "renounceRole",
      "outputs": [],
      "stateMutability": "nonpayable",
      "type": "function"
    },
    {
      "inputs": [
        {
          "internalType": "bytes32",
          "name": "role",
          "type": "bytes32"
        },
        {
          "internalType": "address",
          "name": "account",
          "type": "address"
        }
      ],
      "name": "revokeRole",
      "outputs": [],
      "stateMutability": "nonpayable",
      "type": "function"
    },
    {
      "inputs": [
        {
          "internalType": "bytes4",
          "name": "interfaceId",
          "type": "bytes4"
        }
      ],
      "name": "supportsInterface",
      "outputs": [
        {
          "internalType": "bool",
          "name": "",
          "type": "bool"
        }
      ],
      "stateMutability": "view",
      "type": "function"
    },
    {
      "inputs": [
        {
          "internalType": "address",
          "name": "newOwner",
          "type": "address"
        }
      ],
      "name": "transferOwnership",
      "outputs": [],
      "stateMutability": "nonpayable",
      "type": "function"
    },
    {
      "inputs": [
        {
          "internalType": "address[]",
          "name": "addressList",
          "type": "address[]"
        }
      ],
      "name": "addAdmins",
      "outputs": [],
      "stateMutability": "nonpayable",
      "type": "function"
    },
    {
      "inputs": [
        {
          "internalType": "address[]",
          "name": "addressList",
          "type": "address[]"
        }
      ],
      "name": "removeAdmins",
      "outputs": [],
      "stateMutability": "nonpayable",
      "type": "function"
    },
    {
      "inputs": [],
      "name": "getAdminList",
      "outputs": [
        {
          "internalType": "address[]",
          "name": "",
          "type": "address[]"
        }
      ],
      "stateMutability": "view",
      "type": "function"
    },
    {
      "inputs": [],
      "name": "numOfAdmins",
      "outputs": [
        {
          "internalType": "uint256",
          "name": "",
          "type": "uint256"
        }
      ],
      "stateMutability": "view",
      "type": "function"
    }
  ],
  "bytecode": "0x608060405234801561001057600080fd5b5061002d61002261003260201b60201c565b61003a60201b60201c565b610100565b600033905090565b6000600260009054906101000a900473ffffffffffffffffffffffffffffffffffffffff16905081600260006101000a81548173ffffffffffffffffffffffffffffffffffffffff021916908373ffffffffffffffffffffffffffffffffffffffff1602179055508173ffffffffffffffffffffffffffffffffffffffff168173ffffffffffffffffffffffffffffffffffffffff167f8be0079c531659141344cd1fd0a4f28419497f9722a3daafe3b4186f6b6457e060405160405180910390a35050565b61204380620001106000396000f3fe608060405234801561001057600080fd5b506004361061012c5760003560e01c806391d14854116100ad578063d547741f11610071578063d547741f1461032f578063d9f774fc1461034b578063eb6ecc3614610369578063f2fde38b14610387578063f5074f41146103a35761012c565b806391d14854146102655780639c54df6414610295578063a217fddf146102b1578063a3246ad3146102cf578063ca15c873146102ff5761012c565b8063377e11e0116100f4578063377e11e0146101e7578063715018a61461020357806383197ef01461020d5780638da5cb5b146102175780639010d07c146102355761012c565b80630191dc921461013157806301ffc9a71461014f578063248a9ca31461017f5780632f2ff15d146101af57806336568abe146101cb575b600080fd5b6101396103bf565b604051610146919061151b565b60405180910390f35b610169600480360381019061016491906115a2565b6103ef565b60405161017691906115ea565b60405180910390f35b6101996004803603810190610194919061163b565b610469565b6040516101a69190611677565b60405180910390f35b6101c960048036038101906101c491906116f0565b610488565b005b6101e560048036038101906101e091906116f0565b6104b1565b005b61020160048036038101906101fc9190611889565b610534565b005b61020b610617565b005b61021561069f565b005b61021f610745565b60405161022c91906118e1565b60405180910390f35b61024f600480360381019061024a9190611928565b61076f565b60405161025c91906118e1565b60405180910390f35b61027f600480360381019061027a91906116f0565b61079e565b60405161028c91906115ea565b60405180910390f35b6102af60048036038101906102aa9190611889565b610808565b005b6102b96108eb565b6040516102c69190611677565b60405180910390f35b6102e960048036038101906102e4919061163b565b6108f2565b6040516102f69190611a26565b60405180910390f35b6103196004803603810190610314919061163b565b6109a9565b604051610326919061151b565b60405180910390f35b610349600480360381019061034491906116f0565b6109cd565b005b6103536109f6565b6040516103609190611a26565b60405180910390f35b610371610a26565b60405161037e9190611677565b60405180910390f35b6103a1600480360381019061039c9190611a48565b610a4a565b005b6103bd60048036038101906103b89190611a48565b610b42565b005b60006103ea7f7fc6f12af65cbd9e6927effbd7fbd73009649c9b6f017ec27b678a190439671a6109a9565b905090565b60007f5a05180f000000000000000000000000000000000000000000000000000000007bffffffffffffffffffffffffffffffffffffffffffffffffffffffff1916827bffffffffffffffffffffffffffffffffffffffffffffffffffffffff19161480610462575061046182610bdc565b5b9050919050565b6000806000838152602001908152602001600020600101549050919050565b61049182610469565b6104a28161049d610c56565b610c5e565b6104ac8383610cfb565b505050565b6104b9610c56565b73ffffffffffffffffffffffffffffffffffffffff168173ffffffffffffffffffffffffffffffffffffffff1614610526576040517f08c379a000000000000000000000000000000000000000000000000000000000815260040161051d90611af8565b60405180910390fd5b6105308282610d2f565b5050565b61053c610c56565b73ffffffffffffffffffffffffffffffffffffffff1661055a610745565b73ffffffffffffffffffffffffffffffffffffffff16146105b0576040517f08c379a00000000000000000000000000000000000000000000000000000000081526004016105a790611b64565b60405180910390fd5b60005b8151811015610613576106007f7fc6f12af65cbd9e6927effbd7fbd73009649c9b6f017ec27b678a190439671a8383815181106105f3576105f2611b84565b5b6020026020010151610d2f565b808061060b90611be2565b9150506105b3565b5050565b61061f610c56565b73ffffffffffffffffffffffffffffffffffffffff1661063d610745565b73ffffffffffffffffffffffffffffffffffffffff1614610693576040517f08c379a000000000000000000000000000000000000000000000000000000000815260040161068a90611b64565b60405180910390fd5b61069d6000610d63565b565b6106a7610c56565b73ffffffffffffffffffffffffffffffffffffffff166106c5610745565b73ffffffffffffffffffffffffffffffffffffffff161461071b576040517f08c379a000000000000000000000000000000000000000000000000000000000815260040161071290611b64565b60405180910390fd5b6000610725610745565b905060008190508073ffffffffffffffffffffffffffffffffffffffff16ff5b6000600260009054906101000a900473ffffffffffffffffffffffffffffffffffffffff16905090565b60006107968260016000868152602001908152602001600020610e2990919063ffffffff16565b905092915050565b600080600084815260200190815260200160002060000160008373ffffffffffffffffffffffffffffffffffffffff1673ffffffffffffffffffffffffffffffffffffffff16815260200190815260200160002060009054906101000a900460ff16905092915050565b610810610c56565b73ffffffffffffffffffffffffffffffffffffffff1661082e610745565b73ffffffffffffffffffffffffffffffffffffffff1614610884576040517f08c379a000000000000000000000000000000000000000000000000000000000815260040161087b90611b64565b60405180910390fd5b60005b81518110156108e7576108d47f7fc6f12af65cbd9e6927effbd7fbd73009649c9b6f017ec27b678a190439671a8383815181106108c7576108c6611b84565b5b6020026020010151610cfb565b80806108df90611be2565b915050610887565b5050565b6000801b81565b60608060005b61091360016000868152602001908152602001600020610e43565b81101561099f5761093f8160016000878152602001908152602001600020610e2990919063ffffffff16565b82828151811061095257610951611b84565b5b602002602001019073ffffffffffffffffffffffffffffffffffffffff16908173ffffffffffffffffffffffffffffffffffffffff1681525050808061099790611be2565b9150506108f8565b5080915050919050565b60006109c660016000848152602001908152602001600020610e43565b9050919050565b6109d682610469565b6109e7816109e2610c56565b610c5e565b6109f18383610d2f565b505050565b6060610a217f7fc6f12af65cbd9e6927effbd7fbd73009649c9b6f017ec27b678a190439671a6108f2565b905090565b7f7fc6f12af65cbd9e6927effbd7fbd73009649c9b6f017ec27b678a190439671a81565b610a52610c56565b73ffffffffffffffffffffffffffffffffffffffff16610a70610745565b73ffffffffffffffffffffffffffffffffffffffff1614610ac6576040517f08c379a0000000000000000000000000000000000000000000000000000000008152600401610abd90611b64565b60405180910390fd5b600073ffffffffffffffffffffffffffffffffffffffff168173ffffffffffffffffffffffffffffffffffffffff161415610b36576040517f08c379a0000000000000000000000000000000000000000000000000000000008152600401610b2d90611c9d565b60405180910390fd5b610b3f81610d63565b50565b610b4a610c56565b73ffffffffffffffffffffffffffffffffffffffff16610b68610745565b73ffffffffffffffffffffffffffffffffffffffff1614610bbe576040517f08c379a0000000000000000000000000000000000000000000000000000000008152600401610bb590611b64565b60405180910390fd5b60008190508073ffffffffffffffffffffffffffffffffffffffff16ff5b60007f7965db0b000000000000000000000000000000000000000000000000000000007bffffffffffffffffffffffffffffffffffffffffffffffffffffffff1916827bffffffffffffffffffffffffffffffffffffffffffffffffffffffff19161480610c4f5750610c4e82610e58565b5b9050919050565b600033905090565b610c68828261079e565b610cf757610c8d8173ffffffffffffffffffffffffffffffffffffffff166014610ec2565b610c9b8360001c6020610ec2565b604051602001610cac929190611dcf565b6040516020818303038152906040526040517f08c379a0000000000000000000000000000000000000000000000000000000008152600401610cee9190611e42565b60405180910390fd5b5050565b610d0582826110fe565b610d2a81600160008581526020019081526020016000206111de90919063ffffffff16565b505050565b610d39828261120e565b610d5e81600160008581526020019081526020016000206112ef90919063ffffffff16565b505050565b6000600260009054906101000a900473ffffffffffffffffffffffffffffffffffffffff16905081600260006101000a81548173ffffffffffffffffffffffffffffffffffffffff021916908373ffffffffffffffffffffffffffffffffffffffff1602179055508173ffffffffffffffffffffffffffffffffffffffff168173ffffffffffffffffffffffffffffffffffffffff167f8be0079c531659141344cd1fd0a4f28419497f9722a3daafe3b4186f6b6457e060405160405180910390a35050565b6000610e38836000018361131f565b60001c905092915050565b6000610e518260000161134a565b9050919050565b60007f01ffc9a7000000000000000000000000000000000000000000000000000000007bffffffffffffffffffffffffffffffffffffffffffffffffffffffff1916827bffffffffffffffffffffffffffffffffffffffffffffffffffffffff1916149050919050565b606060006002836002610ed59190611e64565b610edf9190611ebe565b67ffffffffffffffff811115610ef857610ef7611746565b5b6040519080825280601f01601f191660200182016040528015610f2a5781602001600182028036833780820191505090505b5090507f300000000000000000000000000000000000000000000000000000000000000081600081518110610f6257610f61611b84565b5b60200101907effffffffffffffffffffffffffffffffffffffffffffffffffffffffffffff1916908160001a9053507f780000000000000000000000000000000000000000000000000000000000000081600181518110610fc657610fc5611b84565b5b60200101907effffffffffffffffffffffffffffffffffffffffffffffffffffffffffffff1916908160001a905350600060018460026110069190611e64565b6110109190611ebe565b90505b60018111156110b0577f3031323334353637383961626364656600000000000000000000000000000000600f86166010811061105257611051611b84565b5b1a60f81b82828151811061106957611068611b84565b5b60200101907effffffffffffffffffffffffffffffffffffffffffffffffffffffffffffff1916908160001a905350600485901c9450806110a990611f14565b9050611013565b50600084146110f4576040517f08c379a00000000000000000000000000000000000000000000000000000000081526004016110eb90611f8a565b60405180910390fd5b8091505092915050565b611108828261079e565b6111da57600160008084815260200190815260200160002060000160008373ffffffffffffffffffffffffffffffffffffffff1673ffffffffffffffffffffffffffffffffffffffff16815260200190815260200160002060006101000a81548160ff02191690831515021790555061117f610c56565b73ffffffffffffffffffffffffffffffffffffffff168173ffffffffffffffffffffffffffffffffffffffff16837f2f8788117e7eff1d82e926ec794901d17c78024a50270940304540a733656f0d60405160405180910390a45b5050565b6000611206836000018373ffffffffffffffffffffffffffffffffffffffff1660001b61135b565b905092915050565b611218828261079e565b156112eb57600080600084815260200190815260200160002060000160008373ffffffffffffffffffffffffffffffffffffffff1673ffffffffffffffffffffffffffffffffffffffff16815260200190815260200160002060006101000a81548160ff021916908315150217905550611290610c56565b73ffffffffffffffffffffffffffffffffffffffff168173ffffffffffffffffffffffffffffffffffffffff16837ff6391f5c32d9c69d2a47ea670b442974b53935d1edc7fd64eb21e047a839171b60405160405180910390a45b5050565b6000611317836000018373ffffffffffffffffffffffffffffffffffffffff1660001b6113cb565b905092915050565b600082600001828154811061133757611336611b84565b5b9060005260206000200154905092915050565b600081600001805490509050919050565b600061136783836114df565b6113c05782600001829080600181540180825580915050600190039060005260206000200160009091909190915055826000018054905083600101600084815260200190815260200160002081905550600190506113c5565b600090505b92915050565b600080836001016000848152602001908152602001600020549050600081146114d35760006001826113fd9190611faa565b90506000600186600001805490506114159190611faa565b905081811461148457600086600001828154811061143657611435611b84565b5b906000526020600020015490508087600001848154811061145a57611459611b84565b5b90600052602060002001819055508387600101600083815260200190815260200160002081905550505b8560000180548061149857611497611fde565b5b6001900381819060005260206000200160009055905585600101600086815260200190815260200160002060009055600193505050506114d9565b60009150505b92915050565b600080836001016000848152602001908152602001600020541415905092915050565b6000819050919050565b61151581611502565b82525050565b6000602082019050611530600083018461150c565b92915050565b6000604051905090565b600080fd5b600080fd5b60007fffffffff0000000000000000000000000000000000000000000000000000000082169050919050565b61157f8161154a565b811461158a57600080fd5b50565b60008135905061159c81611576565b92915050565b6000602082840312156115b8576115b7611540565b5b60006115c68482850161158d565b91505092915050565b60008115159050919050565b6115e4816115cf565b82525050565b60006020820190506115ff60008301846115db565b92915050565b6000819050919050565b61161881611605565b811461162357600080fd5b50565b6000813590506116358161160f565b92915050565b60006020828403121561165157611650611540565b5b600061165f84828501611626565b91505092915050565b61167181611605565b82525050565b600060208201905061168c6000830184611668565b92915050565b600073ffffffffffffffffffffffffffffffffffffffff82169050919050565b60006116bd82611692565b9050919050565b6116cd816116b2565b81146116d857600080fd5b50565b6000813590506116ea816116c4565b92915050565b6000806040838503121561170757611706611540565b5b600061171585828601611626565b9250506020611726858286016116db565b9150509250929050565b600080fd5b6000601f19601f8301169050919050565b7f4e487b7100000000000000000000000000000000000000000000000000000000600052604160045260246000fd5b61177e82611735565b810181811067ffffffffffffffff8211171561179d5761179c611746565b5b80604052505050565b60006117b0611536565b90506117bc8282611775565b919050565b600067ffffffffffffffff8211156117dc576117db611746565b5b602082029050602081019050919050565b600080fd5b6000611805611800846117c1565b6117a6565b90508083825260208201905060208402830185811115611828576118276117ed565b5b835b81811015611851578061183d88826116db565b84526020840193505060208101905061182a565b5050509392505050565b600082601f8301126118705761186f611730565b5b81356118808482602086016117f2565b91505092915050565b60006020828403121561189f5761189e611540565b5b600082013567ffffffffffffffff8111156118bd576118bc611545565b5b6118c98482850161185b565b91505092915050565b6118db816116b2565b82525050565b60006020820190506118f660008301846118d2565b92915050565b61190581611502565b811461191057600080fd5b50565b600081359050611922816118fc565b92915050565b6000806040838503121561193f5761193e611540565b5b600061194d85828601611626565b925050602061195e85828601611913565b9150509250929050565b600081519050919050565b600082825260208201905092915050565b6000819050602082019050919050565b61199d816116b2565b82525050565b60006119af8383611994565b60208301905092915050565b6000602082019050919050565b60006119d382611968565b6119dd8185611973565b93506119e883611984565b8060005b83811015611a19578151611a0088826119a3565b9750611a0b836119bb565b9250506001810190506119ec565b5085935050505092915050565b60006020820190508181036000830152611a4081846119c8565b905092915050565b600060208284031215611a5e57611a5d611540565b5b6000611a6c848285016116db565b91505092915050565b600082825260208201905092915050565b7f416363657373436f6e74726f6c3a2063616e206f6e6c792072656e6f756e636560008201527f20726f6c657320666f722073656c660000000000000000000000000000000000602082015250565b6000611ae2602f83611a75565b9150611aed82611a86565b604082019050919050565b60006020820190508181036000830152611b1181611ad5565b9050919050565b7f4f776e61626c653a2063616c6c6572206973206e6f7420746865206f776e6572600082015250565b6000611b4e602083611a75565b9150611b5982611b18565b602082019050919050565b60006020820190508181036000830152611b7d81611b41565b9050919050565b7f4e487b7100000000000000000000000000000000000000000000000000000000600052603260045260246000fd5b7f4e487b7100000000000000000000000000000000000000000000000000000000600052601160045260246000fd5b6000611bed82611502565b91507fffffffffffffffffffffffffffffffffffffffffffffffffffffffffffffffff821415611c2057611c1f611bb3565b5b600182019050919050565b7f4f776e61626c653a206e6577206f776e657220697320746865207a65726f206160008201527f6464726573730000000000000000000000000000000000000000000000000000602082015250565b6000611c87602683611a75565b9150611c9282611c2b565b604082019050919050565b60006020820190508181036000830152611cb681611c7a565b9050919050565b600081905092915050565b7f416363657373436f6e74726f6c3a206163636f756e7420000000000000000000600082015250565b6000611cfe601783611cbd565b9150611d0982611cc8565b601782019050919050565b600081519050919050565b60005b83811015611d3d578082015181840152602081019050611d22565b83811115611d4c576000848401525b50505050565b6000611d5d82611d14565b611d678185611cbd565b9350611d77818560208601611d1f565b80840191505092915050565b7f206973206d697373696e6720726f6c6520000000000000000000000000000000600082015250565b6000611db9601183611cbd565b9150611dc482611d83565b601182019050919050565b6000611dda82611cf1565b9150611de68285611d52565b9150611df182611dac565b9150611dfd8284611d52565b91508190509392505050565b6000611e1482611d14565b611e1e8185611a75565b9350611e2e818560208601611d1f565b611e3781611735565b840191505092915050565b60006020820190508181036000830152611e5c8184611e09565b905092915050565b6000611e6f82611502565b9150611e7a83611502565b9250817fffffffffffffffffffffffffffffffffffffffffffffffffffffffffffffffff0483118215151615611eb357611eb2611bb3565b5b828202905092915050565b6000611ec982611502565b9150611ed483611502565b9250827fffffffffffffffffffffffffffffffffffffffffffffffffffffffffffffffff03821115611f0957611f08611bb3565b5b828201905092915050565b6000611f1f82611502565b91506000821415611f3357611f32611bb3565b5b600182039050919050565b7f537472696e67733a20686578206c656e67746820696e73756666696369656e74600082015250565b6000611f74602083611a75565b9150611f7f82611f3e565b602082019050919050565b60006020820190508181036000830152611fa381611f67565b9050919050565b6000611fb582611502565b9150611fc083611502565b925082821015611fd357611fd2611bb3565b5b828203905092915050565b7f4e487b7100000000000000000000000000000000000000000000000000000000600052603160045260246000fdfea2646970667358221220a4c90b09753429c2c9b5c0c0d22cd54258833b915c276abba3c6d054f0e95e5d64736f6c634300080a0033",
  "immutableReferences": {},
  "source": "// SPDX-License-Identifier:MIT\npragma solidity ^0.8.0;\npragma abicoder v2;\n\nimport \"./OZ/AccessControlEnumerable.sol\";\nimport \"./OZ/Destructible.sol\";\n\ncontract EventAdmins is AccessControlEnumerable, Destructible{\n    bytes32 public constant EVENT_ADMIN_ROLE = keccak256(\"EVENT_ADMIN_ROLE\");\n\n    modifier onlyAdmin() {\n        require(hasRole(EVENT_ADMIN_ROLE, _msgSender()) || hasRole(DEFAULT_ADMIN_ROLE, _msgSender()), \"EventAdmin: must have event admin role to perform operation\");\n        _;\n    }\n    function addAdmins(address[] memory addressList) public onlyOwner{\n        for(uint i = 0; i < addressList.length; i++){\n            _grantRole(EVENT_ADMIN_ROLE, addressList[i]);\n        }\n    }\n    function removeAdmins(address[] memory addressList) public onlyOwner{\n        for(uint i = 0; i < addressList.length; i++){\n            _revokeRole(EVENT_ADMIN_ROLE, addressList[i]);\n        }\n    }\n    function getAdminList() view public returns(address[] memory){\n        return getRoleMembers(EVENT_ADMIN_ROLE);\n    }\n    function numOfAdmins() view public returns(uint){\n        return getRoleMemberCount(EVENT_ADMIN_ROLE);\n    }\n\n}",
  "sourcePath": "/Users/nerdjango/Documents/GitHub/noBlock-noParty/contracts/Admins.sol",
  "compiler": {
    "name": "solc",
    "version": "0.8.10+commit.fc410830.Emscripten.clang"
  },
  "schemaVersion": "3.4.3",
  "updatedAt": "2021-11-29T09:15:34.425Z",
  "devdoc": {
    "kind": "dev",
    "methods": {
      "destroy()": {
        "details": "Transfers the current balance to the owner and terminates the contract."
      },
      "getRoleAdmin(bytes32)": {
        "details": "Returns the admin role that controls `role`. See {grantRole} and {revokeRole}. To change a role's admin, use {_setRoleAdmin}."
      },
      "getRoleMember(bytes32,uint256)": {
        "details": "Returns one of the accounts that have `role`. `index` must be a value between 0 and {getRoleMemberCount}, non-inclusive. Role bearers are not sorted in any particular way, and their ordering may change at any point. WARNING: When using {getRoleMember} and {getRoleMemberCount}, make sure you perform all queries on the same block. See the following https://forum.openzeppelin.com/t/iterating-over-elements-on-enumerableset-in-openzeppelin-contracts/2296[forum post] for more information."
      },
      "getRoleMemberCount(bytes32)": {
        "details": "Returns the number of accounts that have `role`. Can be used together with {getRoleMember} to enumerate all bearers of a role."
      },
      "grantRole(bytes32,address)": {
        "details": "Grants `role` to `account`. If `account` had not been already granted `role`, emits a {RoleGranted} event. Requirements: - the caller must have ``role``'s admin role."
      },
      "hasRole(bytes32,address)": {
        "details": "Returns `true` if `account` has been granted `role`."
      },
      "owner()": {
        "details": "Returns the address of the current owner."
      },
      "renounceOwnership()": {
        "details": "Leaves the contract without owner. It will not be possible to call `onlyOwner` functions anymore. Can only be called by the current owner. NOTE: Renouncing ownership will leave the contract without an owner, thereby removing any functionality that is only available to the owner."
      },
      "renounceRole(bytes32,address)": {
        "details": "Revokes `role` from the calling account. Roles are often managed via {grantRole} and {revokeRole}: this function's purpose is to provide a mechanism for accounts to lose their privileges if they are compromised (such as when a trusted device is misplaced). If the calling account had been revoked `role`, emits a {RoleRevoked} event. Requirements: - the caller must be `account`."
      },
      "revokeRole(bytes32,address)": {
        "details": "Revokes `role` from `account`. If `account` had been granted `role`, emits a {RoleRevoked} event. Requirements: - the caller must have ``role``'s admin role."
      },
      "supportsInterface(bytes4)": {
        "details": "See {IERC165-supportsInterface}."
      },
      "transferOwnership(address)": {
        "details": "Transfers ownership of the contract to a new account (`newOwner`). Can only be called by the current owner."
      }
    },
    "version": 1
  },
  "userdoc": {
    "kind": "user",
    "methods": {},
    "version": 1
  }
}