{
  "contractName": "Event",
  "abi": [
    {
      "inputs": [
        {
          "internalType": "address[]",
          "name": "_adminList",
          "type": "address[]"
        },
        {
          "internalType": "string",
          "name": "_eventName",
          "type": "string"
        },
        {
          "internalType": "uint256",
          "name": "_requiredDeposit",
          "type": "uint256"
        },
        {
          "internalType": "uint256",
          "name": "_maxParticipants",
          "type": "uint256"
        },
        {
          "internalType": "uint256",
          "name": "_coolingPeriod",
          "type": "uint256"
        }
      ],
      "stateMutability": "nonpayable",
      "type": "constructor"
    },
    {
      "anonymous": false,
      "inputs": [
        {
          "indexed": true,
          "internalType": "address",
          "name": "previousOwner",
          "type": "address"
        },
        {
          "indexed": true,
          "internalType": "address",
          "name": "newOwner",
          "type": "address"
        }
      ],
      "name": "OwnershipTransferred",
      "type": "event"
    },
    {
      "anonymous": false,
      "inputs": [
        {
          "indexed": true,
          "internalType": "bytes32",
          "name": "role",
          "type": "bytes32"
        },
        {
          "indexed": true,
          "internalType": "bytes32",
          "name": "previousAdminRole",
          "type": "bytes32"
        },
        {
          "indexed": true,
          "internalType": "bytes32",
          "name": "newAdminRole",
          "type": "bytes32"
        }
      ],
      "name": "RoleAdminChanged",
      "type": "event"
    },
    {
      "anonymous": false,
      "inputs": [
        {
          "indexed": true,
          "internalType": "bytes32",
          "name": "role",
          "type": "bytes32"
        },
        {
          "indexed": true,
          "internalType": "address",
          "name": "account",
          "type": "address"
        },
        {
          "indexed": true,
          "internalType": "address",
          "name": "sender",
          "type": "address"
        }
      ],
      "name": "RoleGranted",
      "type": "event"
    },
    {
      "anonymous": false,
      "inputs": [
        {
          "indexed": true,
          "internalType": "bytes32",
          "name": "role",
          "type": "bytes32"
        },
        {
          "indexed": true,
          "internalType": "address",
          "name": "account",
          "type": "address"
        },
        {
          "indexed": true,
          "internalType": "address",
          "name": "sender",
          "type": "address"
        }
      ],
      "name": "RoleRevoked",
      "type": "event"
    },
    {
      "inputs": [],
      "name": "DEFAULT_ADMIN_ROLE",
      "outputs": [
        {
          "internalType": "bytes32",
          "name": "",
          "type": "bytes32"
        }
      ],
      "stateMutability": "view",
      "type": "function",
      "constant": true
    },
    {
      "inputs": [],
      "name": "EVENT_ADMIN_ROLE",
      "outputs": [
        {
          "internalType": "bytes32",
          "name": "",
          "type": "bytes32"
        }
      ],
      "stateMutability": "view",
      "type": "function",
      "constant": true
    },
    {
      "inputs": [],
      "name": "REGISTERED_MEMBER",
      "outputs": [
        {
          "internalType": "bytes32",
          "name": "",
          "type": "bytes32"
        }
      ],
      "stateMutability": "view",
      "type": "function",
      "constant": true
    },
    {
      "inputs": [
        {
          "internalType": "address[]",
          "name": "addressList",
          "type": "address[]"
        }
      ],
      "name": "addAdmins",
      "outputs": [],
      "stateMutability": "nonpayable",
      "type": "function"
    },
    {
      "inputs": [],
      "name": "attended",
      "outputs": [
        {
          "internalType": "uint256",
          "name": "",
          "type": "uint256"
        }
      ],
      "stateMutability": "view",
      "type": "function",
      "constant": true
    },
    {
      "inputs": [],
      "name": "cancelled",
      "outputs": [
        {
          "internalType": "bool",
          "name": "",
          "type": "bool"
        }
      ],
      "stateMutability": "view",
      "type": "function",
      "constant": true
    },
    {
      "inputs": [],
      "name": "coolingPeriod",
      "outputs": [
        {
          "internalType": "uint256",
          "name": "",
          "type": "uint256"
        }
      ],
      "stateMutability": "view",
      "type": "function",
      "constant": true
    },
    {
      "inputs": [],
      "name": "destroy",
      "outputs": [],
      "stateMutability": "nonpayable",
      "type": "function"
    },
    {
      "inputs": [
        {
          "internalType": "address",
          "name": "_recipient",
          "type": "address"
        }
      ],
      "name": "destroyAndSend",
      "outputs": [],
      "stateMutability": "nonpayable",
      "type": "function"
    },
    {
      "inputs": [],
      "name": "ended",
      "outputs": [
        {
          "internalType": "bool",
          "name": "",
          "type": "bool"
        }
      ],
      "stateMutability": "view",
      "type": "function",
      "constant": true
    },
    {
      "inputs": [],
      "name": "endedAt",
      "outputs": [
        {
          "internalType": "uint256",
          "name": "",
          "type": "uint256"
        }
      ],
      "stateMutability": "view",
      "type": "function",
      "constant": true
    },
    {
      "inputs": [],
      "name": "eventName",
      "outputs": [
        {
          "internalType": "string",
          "name": "",
          "type": "string"
        }
      ],
      "stateMutability": "view",
      "type": "function",
      "constant": true
    },
    {
      "inputs": [],
      "name": "getAdminList",
      "outputs": [
        {
          "internalType": "address[]",
          "name": "",
          "type": "address[]"
        }
      ],
      "stateMutability": "view",
      "type": "function",
      "constant": true
    },
    {
      "inputs": [
        {
          "internalType": "bytes32",
          "name": "role",
          "type": "bytes32"
        }
      ],
      "name": "getRoleAdmin",
      "outputs": [
        {
          "internalType": "bytes32",
          "name": "",
          "type": "bytes32"
        }
      ],
      "stateMutability": "view",
      "type": "function",
      "constant": true
    },
    {
      "inputs": [
        {
          "internalType": "bytes32",
          "name": "role",
          "type": "bytes32"
        },
        {
          "internalType": "uint256",
          "name": "index",
          "type": "uint256"
        }
      ],
      "name": "getRoleMember",
      "outputs": [
        {
          "internalType": "address",
          "name": "",
          "type": "address"
        }
      ],
      "stateMutability": "view",
      "type": "function",
      "constant": true
    },
    {
      "inputs": [
        {
          "internalType": "bytes32",
          "name": "role",
          "type": "bytes32"
        }
      ],
      "name": "getRoleMemberCount",
      "outputs": [
        {
          "internalType": "uint256",
          "name": "",
          "type": "uint256"
        }
      ],
      "stateMutability": "view",
      "type": "function",
      "constant": true
    },
    {
      "inputs": [
        {
          "internalType": "bytes32",
          "name": "role",
          "type": "bytes32"
        }
      ],
      "name": "getRoleMembers",
      "outputs": [
        {
          "internalType": "address[]",
          "name": "",
          "type": "address[]"
        }
      ],
      "stateMutability": "view",
      "type": "function",
      "constant": true
    },
    {
      "inputs": [
        {
          "internalType": "bytes32",
          "name": "role",
          "type": "bytes32"
        },
        {
          "internalType": "address",
          "name": "account",
          "type": "address"
        }
      ],
      "name": "grantRole",
      "outputs": [],
      "stateMutability": "nonpayable",
      "type": "function"
    },
    {
      "inputs": [
        {
          "internalType": "bytes32",
          "name": "role",
          "type": "bytes32"
        },
        {
          "internalType": "address",
          "name": "account",
          "type": "address"
        }
      ],
      "name": "hasRole",
      "outputs": [
        {
          "internalType": "bool",
          "name": "",
          "type": "bool"
        }
      ],
      "stateMutability": "view",
      "type": "function",
      "constant": true
    },
    {
      "inputs": [
        {
          "internalType": "address",
          "name": "_addr",
          "type": "address"
        }
      ],
      "name": "isAdmin",
      "outputs": [
        {
          "internalType": "bool",
          "name": "",
          "type": "bool"
        }
      ],
      "stateMutability": "view",
      "type": "function",
      "constant": true
    },
    {
      "inputs": [],
      "name": "maxParticipants",
      "outputs": [
        {
          "internalType": "uint256",
          "name": "",
          "type": "uint256"
        }
      ],
      "stateMutability": "view",
      "type": "function",
      "constant": true
    },
    {
      "inputs": [],
      "name": "numOfAdmins",
      "outputs": [
        {
          "internalType": "uint256",
          "name": "",
          "type": "uint256"
        }
      ],
      "stateMutability": "view",
      "type": "function",
      "constant": true
    },
    {
      "inputs": [],
      "name": "owner",
      "outputs": [
        {
          "internalType": "address",
          "name": "",
          "type": "address"
        }
      ],
      "stateMutability": "view",
      "type": "function",
      "constant": true
    },
    {
      "inputs": [
        {
          "internalType": "address",
          "name": "",
          "type": "address"
        }
      ],
      "name": "participants",
      "outputs": [
        {
          "internalType": "string",
          "name": "participantName",
          "type": "string"
        },
        {
          "internalType": "address",
          "name": "addr",
          "type": "address"
        },
        {
          "internalType": "bool",
          "name": "attended",
          "type": "bool"
        },
        {
          "internalType": "bool",
          "name": "paid",
          "type": "bool"
        }
      ],
      "stateMutability": "view",
      "type": "function",
      "constant": true
    },
    {
      "inputs": [],
      "name": "payoutAmount",
      "outputs": [
        {
          "internalType": "uint256",
          "name": "",
          "type": "uint256"
        }
      ],
      "stateMutability": "view",
      "type": "function",
      "constant": true
    },
    {
      "inputs": [],
      "name": "registered",
      "outputs": [
        {
          "internalType": "uint256",
          "name": "",
          "type": "uint256"
        }
      ],
      "stateMutability": "view",
      "type": "function",
      "constant": true
    },
    {
      "inputs": [
        {
          "internalType": "address[]",
          "name": "addressList",
          "type": "address[]"
        }
      ],
      "name": "removeAdmins",
      "outputs": [],
      "stateMutability": "nonpayable",
      "type": "function"
    },
    {
      "inputs": [],
      "name": "renounceOwnership",
      "outputs": [],
      "stateMutability": "nonpayable",
      "type": "function"
    },
    {
      "inputs": [
        {
          "internalType": "bytes32",
          "name": "role",
          "type": "bytes32"
        },
        {
          "internalType": "address",
          "name": "account",
          "type": "address"
        }
      ],
      "name": "renounceRole",
      "outputs": [],
      "stateMutability": "nonpayable",
      "type": "function"
    },
    {
      "inputs": [],
      "name": "requiredDeposit",
      "outputs": [
        {
          "internalType": "uint256",
          "name": "",
          "type": "uint256"
        }
      ],
      "stateMutability": "view",
      "type": "function",
      "constant": true
    },
    {
      "inputs": [
        {
          "internalType": "bytes32",
          "name": "role",
          "type": "bytes32"
        },
        {
          "internalType": "address",
          "name": "account",
          "type": "address"
        }
      ],
      "name": "revokeRole",
      "outputs": [],
      "stateMutability": "nonpayable",
      "type": "function"
    },
    {
      "inputs": [
        {
          "internalType": "bytes4",
          "name": "interfaceId",
          "type": "bytes4"
        }
      ],
      "name": "supportsInterface",
      "outputs": [
        {
          "internalType": "bool",
          "name": "",
          "type": "bool"
        }
      ],
      "stateMutability": "view",
      "type": "function",
      "constant": true
    },
    {
      "inputs": [
        {
          "internalType": "address",
          "name": "newOwner",
          "type": "address"
        }
      ],
      "name": "transferOwnership",
      "outputs": [],
      "stateMutability": "nonpayable",
      "type": "function"
    },
    {
      "inputs": [],
      "name": "totalBalance",
      "outputs": [
        {
          "internalType": "uint256",
          "name": "",
          "type": "uint256"
        }
      ],
      "stateMutability": "view",
      "type": "function",
      "constant": true
    },
    {
      "inputs": [
        {
          "internalType": "address",
          "name": "_addr",
          "type": "address"
        }
      ],
      "name": "isRegistered",
      "outputs": [
        {
          "internalType": "bool",
          "name": "",
          "type": "bool"
        }
      ],
      "stateMutability": "view",
      "type": "function",
      "constant": true
    },
    {
      "inputs": [
        {
          "internalType": "string",
          "name": "_participant",
          "type": "string"
        }
      ],
      "name": "register",
      "outputs": [],
      "stateMutability": "payable",
      "type": "function",
      "payable": true
    },
    {
      "inputs": [
        {
          "internalType": "address",
          "name": "_addr",
          "type": "address"
        }
      ],
      "name": "isAttended",
      "outputs": [
        {
          "internalType": "bool",
          "name": "",
          "type": "bool"
        }
      ],
      "stateMutability": "view",
      "type": "function",
      "constant": true
    },
    {
      "inputs": [
        {
          "internalType": "address",
          "name": "_addr",
          "type": "address"
        }
      ],
      "name": "isPaid",
      "outputs": [
        {
          "internalType": "bool",
          "name": "",
          "type": "bool"
        }
      ],
      "stateMutability": "view",
      "type": "function",
      "constant": true
    },
    {
      "inputs": [],
      "name": "payout",
      "outputs": [
        {
          "internalType": "uint256",
          "name": "",
          "type": "uint256"
        }
      ],
      "stateMutability": "view",
      "type": "function",
      "constant": true
    },
    {
      "inputs": [],
      "name": "endEvent",
      "outputs": [],
      "stateMutability": "nonpayable",
      "type": "function"
    },
    {
      "inputs": [],
      "name": "cancel",
      "outputs": [],
      "stateMutability": "nonpayable",
      "type": "function"
    },
    {
      "inputs": [],
      "name": "clear",
      "outputs": [],
      "stateMutability": "nonpayable",
      "type": "function"
    },
    {
      "inputs": [
        {
          "internalType": "uint256",
          "name": "_maxParticipants",
          "type": "uint256"
        }
      ],
      "name": "setLimitOfParticipants",
      "outputs": [],
      "stateMutability": "nonpayable",
      "type": "function"
    },
    {
      "inputs": [
        {
          "internalType": "string",
          "name": "_eventName",
          "type": "string"
        }
      ],
      "name": "changeName",
      "outputs": [],
      "stateMutability": "nonpayable",
      "type": "function"
    },
    {
      "inputs": [
        {
          "internalType": "address[]",
          "name": "_addresses",
          "type": "address[]"
        }
      ],
      "name": "attend",
      "outputs": [],
      "stateMutability": "nonpayable",
      "type": "function"
    }
  ],
  "bytecode": "0x60806040523480156200001157600080fd5b506040516200403d3803806200403d833981810160405281019062000037919062000947565b620000576200004b6200022360201b60201c565b6200022b60201b60201c565b6200007b6000801b6200006f6200022360201b60201c565b620002f160201b60201c565b620000bc7f7fc6f12af65cbd9e6927effbd7fbd73009649c9b6f017ec27b678a190439671a620000b06200022360201b60201c565b620002f160201b60201c565b6000855111156200013b5760005b85518110156200013957620001237f7fc6f12af65cbd9e6927effbd7fbd73009649c9b6f017ec27b678a190439671a8783815181106200010f576200010e62000a0d565b5b60200260200101516200030760201b60201c565b8080620001309062000a6b565b915050620000ca565b505b6000845114620001645783600390805190602001906200015d9291906200057f565b50620001b3565b6040518060400160405280600481526020017f546573740000000000000000000000000000000000000000000000000000000081525060039080519060200190620001b19291906200057f565b505b60008314620001c95782600481905550620001d8565b66470de4df8200006004819055505b60008214620001ee5781600581905550620001f7565b60146005819055505b600081146200020d5780600a8190555062000218565b62093a80600a819055505b505050505062000b1e565b600033905090565b6000600260009054906101000a900473ffffffffffffffffffffffffffffffffffffffff16905081600260006101000a81548173ffffffffffffffffffffffffffffffffffffffff021916908373ffffffffffffffffffffffffffffffffffffffff1602179055508173ffffffffffffffffffffffffffffffffffffffff168173ffffffffffffffffffffffffffffffffffffffff167f8be0079c531659141344cd1fd0a4f28419497f9722a3daafe3b4186f6b6457e060405160405180910390a35050565b6200030382826200030760201b60201c565b5050565b6200031e82826200034f60201b62001ba21760201c565b6200034a81600160008581526020019081526020016000206200044060201b62001c821790919060201c565b505050565b6200036182826200047860201b60201c565b6200043c57600160008084815260200190815260200160002060000160008373ffffffffffffffffffffffffffffffffffffffff1673ffffffffffffffffffffffffffffffffffffffff16815260200190815260200160002060006101000a81548160ff021916908315150217905550620003e16200022360201b60201c565b73ffffffffffffffffffffffffffffffffffffffff168173ffffffffffffffffffffffffffffffffffffffff16837f2f8788117e7eff1d82e926ec794901d17c78024a50270940304540a733656f0d60405160405180910390a45b5050565b600062000470836000018373ffffffffffffffffffffffffffffffffffffffff1660001b620004e260201b60201c565b905092915050565b600080600084815260200190815260200160002060000160008373ffffffffffffffffffffffffffffffffffffffff1673ffffffffffffffffffffffffffffffffffffffff16815260200190815260200160002060009054906101000a900460ff16905092915050565b6000620004f683836200055c60201b60201c565b6200055157826000018290806001815401808255809150506001900390600052602060002001600090919091909150558260000180549050836001016000848152602001908152602001600020819055506001905062000556565b600090505b92915050565b600080836001016000848152602001908152602001600020541415905092915050565b8280546200058d9062000ae8565b90600052602060002090601f016020900481019282620005b15760008555620005fd565b82601f10620005cc57805160ff1916838001178555620005fd565b82800160010185558215620005fd579182015b82811115620005fc578251825591602001919060010190620005df565b5b5090506200060c919062000610565b5090565b5b808211156200062b57600081600090555060010162000611565b5090565b6000604051905090565b600080fd5b600080fd5b600080fd5b6000601f19601f8301169050919050565b7f4e487b7100000000000000000000000000000000000000000000000000000000600052604160045260246000fd5b620006938262000648565b810181811067ffffffffffffffff82111715620006b557620006b462000659565b5b80604052505050565b6000620006ca6200062f565b9050620006d8828262000688565b919050565b600067ffffffffffffffff821115620006fb57620006fa62000659565b5b602082029050602081019050919050565b600080fd5b600073ffffffffffffffffffffffffffffffffffffffff82169050919050565b60006200073e8262000711565b9050919050565b620007508162000731565b81146200075c57600080fd5b50565b600081519050620007708162000745565b92915050565b60006200078d6200078784620006dd565b620006be565b90508083825260208201905060208402830185811115620007b357620007b26200070c565b5b835b81811015620007e05780620007cb88826200075f565b845260208401935050602081019050620007b5565b5050509392505050565b600082601f83011262000802576200080162000643565b5b81516200081484826020860162000776565b91505092915050565b600080fd5b600067ffffffffffffffff82111562000840576200083f62000659565b5b6200084b8262000648565b9050602081019050919050565b60005b83811015620008785780820151818401526020810190506200085b565b8381111562000888576000848401525b50505050565b6000620008a56200089f8462000822565b620006be565b905082815260208101848484011115620008c457620008c36200081d565b5b620008d184828562000858565b509392505050565b600082601f830112620008f157620008f062000643565b5b8151620009038482602086016200088e565b91505092915050565b6000819050919050565b62000921816200090c565b81146200092d57600080fd5b50565b600081519050620009418162000916565b92915050565b600080600080600060a0868803121562000966576200096562000639565b5b600086015167ffffffffffffffff8111156200098757620009866200063e565b5b6200099588828901620007ea565b955050602086015167ffffffffffffffff811115620009b957620009b86200063e565b5b620009c788828901620008d9565b9450506040620009da8882890162000930565b9350506060620009ed8882890162000930565b925050608062000a008882890162000930565b9150509295509295909350565b7f4e487b7100000000000000000000000000000000000000000000000000000000600052603260045260246000fd5b7f4e487b7100000000000000000000000000000000000000000000000000000000600052601160045260246000fd5b600062000a78826200090c565b91507fffffffffffffffffffffffffffffffffffffffffffffffffffffffffffffffff82141562000aae5762000aad62000a3c565b5b600182019050919050565b7f4e487b7100000000000000000000000000000000000000000000000000000000600052602260045260246000fd5b6000600282049050600182168062000b0157607f821691505b6020821081141562000b185762000b1762000ab9565b5b50919050565b61350f8062000b2e6000396000f3fe6080604052600436106102725760003560e01c80639010d07c1161014f578063b5e10e9a116100c1578063ea8a1af01161007a578063ea8a1af01461096d578063eb6ecc3614610984578063f2c298be146109af578063f2fde38b146109cb578063f5074f41146109f4578063fb7cfdd714610a1d57610272565b8063b5e10e9a14610849578063c3c5a54714610874578063c9c544ef146108b1578063ca15c873146108dc578063d547741f14610919578063d9f774fc1461094257610272565b80639a82a09a116101135780639a82a09a146107255780639c54df6414610750578063a07f3a5614610779578063a217fddf146107b6578063a3246ad3146107e1578063ad7a672f1461081e57610272565b80639010d07c1461062e57806391d148541461066b5780639328beee146106a8578063982495c7146106d35780639989a5ae146106fc57610272565b80633d6a71e4116101e85780636ded82f8116101ac5780636ded82f814610556578063715018a6146105935780638043c9c0146105aa57806383197ef0146105d557806386ec6177146105ec5780638da5cb5b1461060357610272565b80633d6a71e41461049557806352efea6e146104c05780635353a2d8146104d757806363bd1d4a146105005780636b46c8c31461052b57610272565b806324924bf71161023a57806324924bf71461038757806324d7806c146103b25780632de40ce3146103ef5780632f2ff15d1461041a57806336568abe14610443578063377e11e01461046c57610272565b80630191dc921461027757806301ffc9a7146102a257806309e69ede146102df57806312fa6feb1461031f578063248a9ca31461034a575b600080fd5b34801561028357600080fd5b5061028c610a48565b604051610299919061271d565b60405180910390f35b3480156102ae57600080fd5b506102c960048036038101906102c491906127a4565b610a78565b6040516102d691906127ec565b60405180910390f35b3480156102eb57600080fd5b5061030660048036038101906103019190612865565b610af2565b604051610316949392919061293a565b60405180910390f35b34801561032b57600080fd5b50610334610be4565b60405161034191906127ec565b60405180910390f35b34801561035657600080fd5b50610371600480360381019061036c91906129bc565b610bf7565b60405161037e91906129f8565b60405180910390f35b34801561039357600080fd5b5061039c610c16565b6040516103a9919061271d565b60405180910390f35b3480156103be57600080fd5b506103d960048036038101906103d49190612865565b610c1c565b6040516103e691906127ec565b60405180910390f35b3480156103fb57600080fd5b50610404610c82565b604051610411919061271d565b60405180910390f35b34801561042657600080fd5b50610441600480360381019061043c9190612a13565b610c88565b005b34801561044f57600080fd5b5061046a60048036038101906104659190612a13565b610cb1565b005b34801561047857600080fd5b50610493600480360381019061048e9190612b9b565b610d34565b005b3480156104a157600080fd5b506104aa610e17565b6040516104b7919061271d565b60405180910390f35b3480156104cc57600080fd5b506104d5610e1d565b005b3480156104e357600080fd5b506104fe60048036038101906104f99190612c99565b610f30565b005b34801561050c57600080fd5b50610515610fd5565b604051610522919061271d565b60405180910390f35b34801561053757600080fd5b50610540611005565b60405161054d919061271d565b60405180910390f35b34801561056257600080fd5b5061057d60048036038101906105789190612865565b61100b565b60405161058a91906127ec565b60405180910390f35b34801561059f57600080fd5b506105a8611075565b005b3480156105b657600080fd5b506105bf6110fd565b6040516105cc9190612ce2565b60405180910390f35b3480156105e157600080fd5b506105ea61118b565b005b3480156105f857600080fd5b50610601611231565b005b34801561060f57600080fd5b506106186112f9565b6040516106259190612d04565b60405180910390f35b34801561063a57600080fd5b5061065560048036038101906106509190612d4b565b611323565b6040516106629190612d04565b60405180910390f35b34801561067757600080fd5b50610692600480360381019061068d9190612a13565b611352565b60405161069f91906127ec565b60405180910390f35b3480156106b457600080fd5b506106bd6113bc565b6040516106ca919061271d565b60405180910390f35b3480156106df57600080fd5b506106fa60048036038101906106f59190612b9b565b6113c2565b005b34801561070857600080fd5b50610723600480360381019061071e9190612d8b565b611542565b005b34801561073157600080fd5b5061073a6115e2565b60405161074791906127ec565b60405180910390f35b34801561075c57600080fd5b5061077760048036038101906107729190612b9b565b6115f5565b005b34801561078557600080fd5b506107a0600480360381019061079b9190612865565b6116d8565b6040516107ad91906127ec565b60405180910390f35b3480156107c257600080fd5b506107cb611742565b6040516107d891906129f8565b60405180910390f35b3480156107ed57600080fd5b50610808600480360381019061080391906129bc565b611749565b6040516108159190612e76565b60405180910390f35b34801561082a57600080fd5b50610833611800565b604051610840919061271d565b60405180910390f35b34801561085557600080fd5b5061085e611808565b60405161086b919061271d565b60405180910390f35b34801561088057600080fd5b5061089b60048036038101906108969190612865565b61180e565b6040516108a891906127ec565b60405180910390f35b3480156108bd57600080fd5b506108c6611841565b6040516108d391906129f8565b60405180910390f35b3480156108e857600080fd5b5061090360048036038101906108fe91906129bc565b611865565b604051610910919061271d565b60405180910390f35b34801561092557600080fd5b50610940600480360381019061093b9190612a13565b611889565b005b34801561094e57600080fd5b506109576118b2565b6040516109649190612e76565b60405180910390f35b34801561097957600080fd5b506109826118e2565b005b34801561099057600080fd5b506109996119c0565b6040516109a691906129f8565b60405180910390f35b6109c960048036038101906109c49190612c99565b6119e4565b005b3480156109d757600080fd5b506109f260048036038101906109ed9190612865565b611a0a565b005b348015610a0057600080fd5b50610a1b6004803603810190610a169190612865565b611b02565b005b348015610a2957600080fd5b50610a32611b9c565b604051610a3f919061271d565b60405180910390f35b6000610a737f7fc6f12af65cbd9e6927effbd7fbd73009649c9b6f017ec27b678a190439671a611865565b905090565b60007f5a05180f000000000000000000000000000000000000000000000000000000007bffffffffffffffffffffffffffffffffffffffffffffffffffffffff1916827bffffffffffffffffffffffffffffffffffffffffffffffffffffffff19161480610aeb5750610aea82611cb2565b5b9050919050565b600c602052806000526040600020600091509050806000018054610b1590612ec7565b80601f0160208091040260200160405190810160405280929190818152602001828054610b4190612ec7565b8015610b8e5780601f10610b6357610100808354040283529160200191610b8e565b820191906000526020600020905b815481529060010190602001808311610b7157829003601f168201915b5050505050908060010160009054906101000a900473ffffffffffffffffffffffffffffffffffffffff16908060010160149054906101000a900460ff16908060010160159054906101000a900460ff16905084565b600860009054906101000a900460ff1681565b6000806000838152602001908152602001600020600101549050919050565b60055481565b6000610c487f7fc6f12af65cbd9e6927effbd7fbd73009649c9b6f017ec27b678a190439671a83611352565b610c5157600080fd5b610c7b7f7fc6f12af65cbd9e6927effbd7fbd73009649c9b6f017ec27b678a190439671a83611352565b9050919050565b60065481565b610c9182610bf7565b610ca281610c9d611d2c565b611d34565b610cac8383611dd1565b505050565b610cb9611d2c565b73ffffffffffffffffffffffffffffffffffffffff168173ffffffffffffffffffffffffffffffffffffffff1614610d26576040517f08c379a0000000000000000000000000000000000000000000000000000000008152600401610d1d90612f6b565b60405180910390fd5b610d308282611e05565b5050565b610d3c611d2c565b73ffffffffffffffffffffffffffffffffffffffff16610d5a6112f9565b73ffffffffffffffffffffffffffffffffffffffff1614610db0576040517f08c379a0000000000000000000000000000000000000000000000000000000008152600401610da790612fd7565b60405180910390fd5b60005b8151811015610e1357610e007f7fc6f12af65cbd9e6927effbd7fbd73009649c9b6f017ec27b678a190439671a838381518110610df357610df2612ff7565b5b6020026020010151611e05565b8080610e0b90613055565b915050610db3565b5050565b60095481565b610e25611d2c565b73ffffffffffffffffffffffffffffffffffffffff16610e436112f9565b73ffffffffffffffffffffffffffffffffffffffff1614610e99576040517f08c379a0000000000000000000000000000000000000000000000000000000008152600401610e9090612fd7565b60405180910390fd5b600860009054906101000a900460ff16610eb257600080fd5b600a54600954610ec2919061309e565b4211610ecd57600080fd5b6000610ed7611800565b90506000610ee36112f9565b90508073ffffffffffffffffffffffffffffffffffffffff166108fc839081150290604051600060405180830381858888f19350505050158015610f2b573d6000803e3d6000fd5b505050565b610f38611d2c565b73ffffffffffffffffffffffffffffffffffffffff16610f566112f9565b73ffffffffffffffffffffffffffffffffffffffff1614610fac576040517f08c379a0000000000000000000000000000000000000000000000000000000008152600401610fa390612fd7565b60405180910390fd5b600060065414610fbb57600080fd5b8060039080519060200190610fd1929190612661565b5050565b6000806007541415610fea5760009050611002565b600754610ff5611800565b610fff9190613123565b90505b90565b600b5481565b60006110168261180e565b801561106e5750600c60008373ffffffffffffffffffffffffffffffffffffffff1673ffffffffffffffffffffffffffffffffffffffff16815260200190815260200160002060010160159054906101000a900460ff165b9050919050565b61107d611d2c565b73ffffffffffffffffffffffffffffffffffffffff1661109b6112f9565b73ffffffffffffffffffffffffffffffffffffffff16146110f1576040517f08c379a00000000000000000000000000000000000000000000000000000000081526004016110e890612fd7565b60405180910390fd5b6110fb6000611e39565b565b6003805461110a90612ec7565b80601f016020809104026020016040519081016040528092919081815260200182805461113690612ec7565b80156111835780601f1061115857610100808354040283529160200191611183565b820191906000526020600020905b81548152906001019060200180831161116657829003601f168201915b505050505081565b611193611d2c565b73ffffffffffffffffffffffffffffffffffffffff166111b16112f9565b73ffffffffffffffffffffffffffffffffffffffff1614611207576040517f08c379a00000000000000000000000000000000000000000000000000000000081526004016111fe90612fd7565b60405180910390fd5b60006112116112f9565b905060008190508073ffffffffffffffffffffffffffffffffffffffff16ff5b611239611d2c565b73ffffffffffffffffffffffffffffffffffffffff166112576112f9565b73ffffffffffffffffffffffffffffffffffffffff16146112ad576040517f08c379a00000000000000000000000000000000000000000000000000000000081526004016112a490612fd7565b60405180910390fd5b600860009054906101000a900460ff16156112c757600080fd5b6112cf610fd5565b600b819055506001600860006101000a81548160ff02191690831515021790555042600981905550565b6000600260009054906101000a900473ffffffffffffffffffffffffffffffffffffffff16905090565b600061134a8260016000868152602001908152602001600020611eff90919063ffffffff16565b905092915050565b600080600084815260200190815260200160002060000160008373ffffffffffffffffffffffffffffffffffffffff1673ffffffffffffffffffffffffffffffffffffffff16815260200190815260200160002060009054906101000a900460ff16905092915050565b600a5481565b6113f37f7fc6f12af65cbd9e6927effbd7fbd73009649c9b6f017ec27b678a190439671a6113ee611d2c565b611352565b8061140e575061140d6000801b611408611d2c565b611352565b5b61144d576040517f08c379a0000000000000000000000000000000000000000000000000000000008152600401611444906131c6565b60405180910390fd5b600860009054906101000a900460ff161561146757600080fd5b60005b815181101561153e57600082828151811061148857611487612ff7565b5b6020026020010151905061149b8161180e565b6114a457600080fd5b6114ad816116d8565b156114b757600080fd5b6001600c60008373ffffffffffffffffffffffffffffffffffffffff1673ffffffffffffffffffffffffffffffffffffffff16815260200190815260200160002060010160146101000a81548160ff0219169083151502179055506007600081548092919061152590613055565b919050555050808061153690613055565b91505061146a565b5050565b61154a611d2c565b73ffffffffffffffffffffffffffffffffffffffff166115686112f9565b73ffffffffffffffffffffffffffffffffffffffff16146115be576040517f08c379a00000000000000000000000000000000000000000000000000000000081526004016115b590612fd7565b60405180910390fd5b600860009054906101000a900460ff16156115d857600080fd5b8060058190555050565b600860019054906101000a900460ff1681565b6115fd611d2c565b73ffffffffffffffffffffffffffffffffffffffff1661161b6112f9565b73ffffffffffffffffffffffffffffffffffffffff1614611671576040517f08c379a000000000000000000000000000000000000000000000000000000000815260040161166890612fd7565b60405180910390fd5b60005b81518110156116d4576116c17f7fc6f12af65cbd9e6927effbd7fbd73009649c9b6f017ec27b678a190439671a8383815181106116b4576116b3612ff7565b5b6020026020010151611dd1565b80806116cc90613055565b915050611674565b5050565b60006116e38261180e565b801561173b5750600c60008373ffffffffffffffffffffffffffffffffffffffff1673ffffffffffffffffffffffffffffffffffffffff16815260200190815260200160002060010160149054906101000a900460ff165b9050919050565b6000801b81565b60608060005b61176a60016000868152602001908152602001600020611f19565b8110156117f6576117968160016000878152602001908152602001600020611eff90919063ffffffff16565b8282815181106117a9576117a8612ff7565b5b602002602001019073ffffffffffffffffffffffffffffffffffffffff16908173ffffffffffffffffffffffffffffffffffffffff168152505080806117ee90613055565b91505061174f565b5080915050919050565b600047905090565b60075481565b600061183a7f6e7f2a30f601433f3b250df1bfb275112ea8af861d4fcf1fd6768496eebde74183611352565b9050919050565b7f6e7f2a30f601433f3b250df1bfb275112ea8af861d4fcf1fd6768496eebde74181565b600061188260016000848152602001908152602001600020611f19565b9050919050565b61189282610bf7565b6118a38161189e611d2c565b611d34565b6118ad8383611e05565b505050565b60606118dd7f7fc6f12af65cbd9e6927effbd7fbd73009649c9b6f017ec27b678a190439671a611749565b905090565b6118ea611d2c565b73ffffffffffffffffffffffffffffffffffffffff166119086112f9565b73ffffffffffffffffffffffffffffffffffffffff161461195e576040517f08c379a000000000000000000000000000000000000000000000000000000000815260040161195590612fd7565b60405180910390fd5b600860009054906101000a900460ff161561197857600080fd5b600454600b819055506001600860016101000a81548160ff0219169083151502179055506001600860006101000a81548160ff02191690831515021790555042600981905550565b7f7fc6f12af65cbd9e6927effbd7fbd73009649c9b6f017ec27b678a190439671a81565b600860009054906101000a900460ff16156119fe57600080fd5b611a0781611f2e565b50565b611a12611d2c565b73ffffffffffffffffffffffffffffffffffffffff16611a306112f9565b73ffffffffffffffffffffffffffffffffffffffff1614611a86576040517f08c379a0000000000000000000000000000000000000000000000000000000008152600401611a7d90612fd7565b60405180910390fd5b600073ffffffffffffffffffffffffffffffffffffffff168173ffffffffffffffffffffffffffffffffffffffff161415611af6576040517f08c379a0000000000000000000000000000000000000000000000000000000008152600401611aed90613258565b60405180910390fd5b611aff81611e39565b50565b611b0a611d2c565b73ffffffffffffffffffffffffffffffffffffffff16611b286112f9565b73ffffffffffffffffffffffffffffffffffffffff1614611b7e576040517f08c379a0000000000000000000000000000000000000000000000000000000008152600401611b7590612fd7565b60405180910390fd5b60008190508073ffffffffffffffffffffffffffffffffffffffff16ff5b60045481565b611bac8282611352565b611c7e57600160008084815260200190815260200160002060000160008373ffffffffffffffffffffffffffffffffffffffff1673ffffffffffffffffffffffffffffffffffffffff16815260200190815260200160002060006101000a81548160ff021916908315150217905550611c23611d2c565b73ffffffffffffffffffffffffffffffffffffffff168173ffffffffffffffffffffffffffffffffffffffff16837f2f8788117e7eff1d82e926ec794901d17c78024a50270940304540a733656f0d60405160405180910390a45b5050565b6000611caa836000018373ffffffffffffffffffffffffffffffffffffffff1660001b6120c7565b905092915050565b60007f7965db0b000000000000000000000000000000000000000000000000000000007bffffffffffffffffffffffffffffffffffffffffffffffffffffffff1916827bffffffffffffffffffffffffffffffffffffffffffffffffffffffff19161480611d255750611d2482612137565b5b9050919050565b600033905090565b611d3e8282611352565b611dcd57611d638173ffffffffffffffffffffffffffffffffffffffff1660146121a1565b611d718360001c60206121a1565b604051602001611d8292919061334c565b6040516020818303038152906040526040517f08c379a0000000000000000000000000000000000000000000000000000000008152600401611dc49190612ce2565b60405180910390fd5b5050565b611ddb8282611ba2565b611e008160016000858152602001908152602001600020611c8290919063ffffffff16565b505050565b611e0f82826123dd565b611e3481600160008581526020019081526020016000206124be90919063ffffffff16565b505050565b6000600260009054906101000a900473ffffffffffffffffffffffffffffffffffffffff16905081600260006101000a81548173ffffffffffffffffffffffffffffffffffffffff021916908373ffffffffffffffffffffffffffffffffffffffff1602179055508173ffffffffffffffffffffffffffffffffffffffff168173ffffffffffffffffffffffffffffffffffffffff167f8be0079c531659141344cd1fd0a4f28419497f9722a3daafe3b4186f6b6457e060405160405180910390a35050565b6000611f0e83600001836124ee565b60001c905092915050565b6000611f2782600001612519565b9050919050565b6004543414611f3c57600080fd5b60055460065410611f4c57600080fd5b611f553361180e565b15611f5f57600080fd5b60066000815480929190611f7290613055565b9190505550611fa17f6e7f2a30f601433f3b250df1bfb275112ea8af861d4fcf1fd6768496eebde74133611dd1565b60405180608001604052808281526020013373ffffffffffffffffffffffffffffffffffffffff16815260200160001515815260200160001515815250600c60003373ffffffffffffffffffffffffffffffffffffffff1673ffffffffffffffffffffffffffffffffffffffff1681526020019081526020016000206000820151816000019080519060200190612039929190612661565b5060208201518160010160006101000a81548173ffffffffffffffffffffffffffffffffffffffff021916908373ffffffffffffffffffffffffffffffffffffffff16021790555060408201518160010160146101000a81548160ff02191690831515021790555060608201518160010160156101000a81548160ff02191690831515021790555090505050565b60006120d3838361252a565b61212c578260000182908060018154018082558091505060019003906000526020600020016000909190919091505582600001805490508360010160008481526020019081526020016000208190555060019050612131565b600090505b92915050565b60007f01ffc9a7000000000000000000000000000000000000000000000000000000007bffffffffffffffffffffffffffffffffffffffffffffffffffffffff1916827bffffffffffffffffffffffffffffffffffffffffffffffffffffffff1916149050919050565b6060600060028360026121b49190613386565b6121be919061309e565b67ffffffffffffffff8111156121d7576121d6612a58565b5b6040519080825280601f01601f1916602001820160405280156122095781602001600182028036833780820191505090505b5090507f30000000000000000000000000000000000000000000000000000000000000008160008151811061224157612240612ff7565b5b60200101907effffffffffffffffffffffffffffffffffffffffffffffffffffffffffffff1916908160001a9053507f7800000000000000000000000000000000000000000000000000000000000000816001815181106122a5576122a4612ff7565b5b60200101907effffffffffffffffffffffffffffffffffffffffffffffffffffffffffffff1916908160001a905350600060018460026122e59190613386565b6122ef919061309e565b90505b600181111561238f577f3031323334353637383961626364656600000000000000000000000000000000600f86166010811061233157612330612ff7565b5b1a60f81b82828151811061234857612347612ff7565b5b60200101907effffffffffffffffffffffffffffffffffffffffffffffffffffffffffffff1916908160001a905350600485901c945080612388906133e0565b90506122f2565b50600084146123d3576040517f08c379a00000000000000000000000000000000000000000000000000000000081526004016123ca90613456565b60405180910390fd5b8091505092915050565b6123e78282611352565b156124ba57600080600084815260200190815260200160002060000160008373ffffffffffffffffffffffffffffffffffffffff1673ffffffffffffffffffffffffffffffffffffffff16815260200190815260200160002060006101000a81548160ff02191690831515021790555061245f611d2c565b73ffffffffffffffffffffffffffffffffffffffff168173ffffffffffffffffffffffffffffffffffffffff16837ff6391f5c32d9c69d2a47ea670b442974b53935d1edc7fd64eb21e047a839171b60405160405180910390a45b5050565b60006124e6836000018373ffffffffffffffffffffffffffffffffffffffff1660001b61254d565b905092915050565b600082600001828154811061250657612505612ff7565b5b9060005260206000200154905092915050565b600081600001805490509050919050565b600080836001016000848152602001908152602001600020541415905092915050565b6000808360010160008481526020019081526020016000205490506000811461265557600060018261257f9190613476565b90506000600186600001805490506125979190613476565b90508181146126065760008660000182815481106125b8576125b7612ff7565b5b90600052602060002001549050808760000184815481106125dc576125db612ff7565b5b90600052602060002001819055508387600101600083815260200190815260200160002081905550505b8560000180548061261a576126196134aa565b5b60019003818190600052602060002001600090559055856001016000868152602001908152602001600020600090556001935050505061265b565b60009150505b92915050565b82805461266d90612ec7565b90600052602060002090601f01602090048101928261268f57600085556126d6565b82601f106126a857805160ff19168380011785556126d6565b828001600101855582156126d6579182015b828111156126d55782518255916020019190600101906126ba565b5b5090506126e391906126e7565b5090565b5b808211156127005760008160009055506001016126e8565b5090565b6000819050919050565b61271781612704565b82525050565b6000602082019050612732600083018461270e565b92915050565b6000604051905090565b600080fd5b600080fd5b60007fffffffff0000000000000000000000000000000000000000000000000000000082169050919050565b6127818161274c565b811461278c57600080fd5b50565b60008135905061279e81612778565b92915050565b6000602082840312156127ba576127b9612742565b5b60006127c88482850161278f565b91505092915050565b60008115159050919050565b6127e6816127d1565b82525050565b600060208201905061280160008301846127dd565b92915050565b600073ffffffffffffffffffffffffffffffffffffffff82169050919050565b600061283282612807565b9050919050565b61284281612827565b811461284d57600080fd5b50565b60008135905061285f81612839565b92915050565b60006020828403121561287b5761287a612742565b5b600061288984828501612850565b91505092915050565b600081519050919050565b600082825260208201905092915050565b60005b838110156128cc5780820151818401526020810190506128b1565b838111156128db576000848401525b50505050565b6000601f19601f8301169050919050565b60006128fd82612892565b612907818561289d565b93506129178185602086016128ae565b612920816128e1565b840191505092915050565b61293481612827565b82525050565b6000608082019050818103600083015261295481876128f2565b9050612963602083018661292b565b61297060408301856127dd565b61297d60608301846127dd565b95945050505050565b6000819050919050565b61299981612986565b81146129a457600080fd5b50565b6000813590506129b681612990565b92915050565b6000602082840312156129d2576129d1612742565b5b60006129e0848285016129a7565b91505092915050565b6129f281612986565b82525050565b6000602082019050612a0d60008301846129e9565b92915050565b60008060408385031215612a2a57612a29612742565b5b6000612a38858286016129a7565b9250506020612a4985828601612850565b9150509250929050565b600080fd5b7f4e487b7100000000000000000000000000000000000000000000000000000000600052604160045260246000fd5b612a90826128e1565b810181811067ffffffffffffffff82111715612aaf57612aae612a58565b5b80604052505050565b6000612ac2612738565b9050612ace8282612a87565b919050565b600067ffffffffffffffff821115612aee57612aed612a58565b5b602082029050602081019050919050565b600080fd5b6000612b17612b1284612ad3565b612ab8565b90508083825260208201905060208402830185811115612b3a57612b39612aff565b5b835b81811015612b635780612b4f8882612850565b845260208401935050602081019050612b3c565b5050509392505050565b600082601f830112612b8257612b81612a53565b5b8135612b92848260208601612b04565b91505092915050565b600060208284031215612bb157612bb0612742565b5b600082013567ffffffffffffffff811115612bcf57612bce612747565b5b612bdb84828501612b6d565b91505092915050565b600080fd5b600067ffffffffffffffff821115612c0457612c03612a58565b5b612c0d826128e1565b9050602081019050919050565b82818337600083830152505050565b6000612c3c612c3784612be9565b612ab8565b905082815260208101848484011115612c5857612c57612be4565b5b612c63848285612c1a565b509392505050565b600082601f830112612c8057612c7f612a53565b5b8135612c90848260208601612c29565b91505092915050565b600060208284031215612caf57612cae612742565b5b600082013567ffffffffffffffff811115612ccd57612ccc612747565b5b612cd984828501612c6b565b91505092915050565b60006020820190508181036000830152612cfc81846128f2565b905092915050565b6000602082019050612d19600083018461292b565b92915050565b612d2881612704565b8114612d3357600080fd5b50565b600081359050612d4581612d1f565b92915050565b60008060408385031215612d6257612d61612742565b5b6000612d70858286016129a7565b9250506020612d8185828601612d36565b9150509250929050565b600060208284031215612da157612da0612742565b5b6000612daf84828501612d36565b91505092915050565b600081519050919050565b600082825260208201905092915050565b6000819050602082019050919050565b612ded81612827565b82525050565b6000612dff8383612de4565b60208301905092915050565b6000602082019050919050565b6000612e2382612db8565b612e2d8185612dc3565b9350612e3883612dd4565b8060005b83811015612e69578151612e508882612df3565b9750612e5b83612e0b565b925050600181019050612e3c565b5085935050505092915050565b60006020820190508181036000830152612e908184612e18565b905092915050565b7f4e487b7100000000000000000000000000000000000000000000000000000000600052602260045260246000fd5b60006002820490506001821680612edf57607f821691505b60208210811415612ef357612ef2612e98565b5b50919050565b7f416363657373436f6e74726f6c3a2063616e206f6e6c792072656e6f756e636560008201527f20726f6c657320666f722073656c660000000000000000000000000000000000602082015250565b6000612f55602f8361289d565b9150612f6082612ef9565b604082019050919050565b60006020820190508181036000830152612f8481612f48565b9050919050565b7f4f776e61626c653a2063616c6c6572206973206e6f7420746865206f776e6572600082015250565b6000612fc160208361289d565b9150612fcc82612f8b565b602082019050919050565b60006020820190508181036000830152612ff081612fb4565b9050919050565b7f4e487b7100000000000000000000000000000000000000000000000000000000600052603260045260246000fd5b7f4e487b7100000000000000000000000000000000000000000000000000000000600052601160045260246000fd5b600061306082612704565b91507fffffffffffffffffffffffffffffffffffffffffffffffffffffffffffffffff82141561309357613092613026565b5b600182019050919050565b60006130a982612704565b91506130b483612704565b9250827fffffffffffffffffffffffffffffffffffffffffffffffffffffffffffffffff038211156130e9576130e8613026565b5b828201905092915050565b7f4e487b7100000000000000000000000000000000000000000000000000000000600052601260045260246000fd5b600061312e82612704565b915061313983612704565b925082613149576131486130f4565b5b828204905092915050565b7f4576656e7441646d696e3a206d7573742068617665206576656e742061646d6960008201527f6e20726f6c6520746f20706572666f726d206f7065726174696f6e0000000000602082015250565b60006131b0603b8361289d565b91506131bb82613154565b604082019050919050565b600060208201905081810360008301526131df816131a3565b9050919050565b7f4f776e61626c653a206e6577206f776e657220697320746865207a65726f206160008201527f6464726573730000000000000000000000000000000000000000000000000000602082015250565b600061324260268361289d565b915061324d826131e6565b604082019050919050565b6000602082019050818103600083015261327181613235565b9050919050565b600081905092915050565b7f416363657373436f6e74726f6c3a206163636f756e7420000000000000000000600082015250565b60006132b9601783613278565b91506132c482613283565b601782019050919050565b60006132da82612892565b6132e48185613278565b93506132f48185602086016128ae565b80840191505092915050565b7f206973206d697373696e6720726f6c6520000000000000000000000000000000600082015250565b6000613336601183613278565b915061334182613300565b601182019050919050565b6000613357826132ac565b915061336382856132cf565b915061336e82613329565b915061337a82846132cf565b91508190509392505050565b600061339182612704565b915061339c83612704565b9250817fffffffffffffffffffffffffffffffffffffffffffffffffffffffffffffffff04831182151516156133d5576133d4613026565b5b828202905092915050565b60006133eb82612704565b915060008214156133ff576133fe613026565b5b600182039050919050565b7f537472696e67733a20686578206c656e67746820696e73756666696369656e74600082015250565b600061344060208361289d565b915061344b8261340a565b602082019050919050565b6000602082019050818103600083015261346f81613433565b9050919050565b600061348182612704565b915061348c83612704565b92508282101561349f5761349e613026565b5b828203905092915050565b7f4e487b7100000000000000000000000000000000000000000000000000000000600052603160045260246000fdfea2646970667358221220edc863aed66dcd10361fc6d2d0a9a77962997bb58e176eb925c28a300538a23864736f6c634300080a0033",
  "immutableReferences": {},
  "source": "// SPDX-License-Identifier:MIT\npragma solidity ^0.8.0;\npragma abicoder v2;\n\nimport \"./Admins.sol\";\n\ncontract Event is EventAdmins{\n    constructor(\n        address[] memory _adminList,\n        string memory _eventName,\n        uint256 _requiredDeposit,\n        uint _maxParticipants,\n        uint _coolingPeriod\n    ){\n        _setupRole(DEFAULT_ADMIN_ROLE, _msgSender());\n        _setupRole(EVENT_ADMIN_ROLE, _msgSender());\n\n        if (_adminList.length > 0){\n            for(uint i = 0; i < _adminList.length; i++){\n                _grantRole(EVENT_ADMIN_ROLE, _adminList[i]);\n            }\n        }\n\n        if (bytes(_eventName).length != 0){\n            eventName = _eventName;\n        } else {\n            eventName = 'Test';\n        }\n\n        if(_requiredDeposit != 0){\n            requiredDeposit = _requiredDeposit;\n        }else{\n            requiredDeposit = 0.02 ether;\n        }\n\n        if (_maxParticipants != 0){\n            maxParticipants = _maxParticipants;\n        }else{\n            maxParticipants = 20;\n        }\n\n        if (_coolingPeriod != 0) {\n            coolingPeriod = _coolingPeriod;\n        } else {\n            coolingPeriod = 1 weeks;\n        }\n    }   \n    string public eventName;\n    uint256 public requiredDeposit;\n    uint public maxParticipants;\n    uint public registered;\n    uint public attended;\n    bool public ended;\n    bool public cancelled;\n    uint public endedAt;\n    uint public coolingPeriod;\n    uint256 public payoutAmount;\n\n    bytes32 public constant REGISTERED_MEMBER = keccak256(\"REGISTERED_MEMBER\");\n\n    struct Participant {\n        string participantName;\n        address addr;\n        bool attended;\n        bool paid;\n    }\n\n    mapping (address => Participant) public participants;\n\n    /* Modifiers */\n    modifier onlyActive {\n        require(!ended);\n        _;\n    }\n\n    modifier noOneRegistered {\n        require(registered == 0);\n        _;\n    }\n\n    modifier onlyEnded {\n        require(ended);\n        _;\n    }\n\n    function totalBalance() view public returns (uint256){\n        return address(this).balance;\n    }\n\n    function isRegistered(address _addr) view public returns (bool){\n        return hasRole(REGISTERED_MEMBER, _addr);\n    }\n\n    function registerInternal(string memory _participant) internal {\n        require(msg.value == requiredDeposit);\n        require(registered < maxParticipants);\n        require(!isRegistered(msg.sender));\n\n        registered++;\n        _grantRole(REGISTERED_MEMBER, msg.sender);\n        participants[msg.sender] = Participant(_participant, msg.sender, false, false);\n    }\n\n    function register(string memory _participant) external payable onlyActive{\n        registerInternal(_participant);\n    }\n\n    function isAttended(address _addr) view public returns (bool){\n        return isRegistered(_addr) && participants[_addr].attended;\n    }\n\n    function isPaid(address _addr) view public returns (bool){\n        return isRegistered(_addr) && participants[_addr].paid;\n    }\n\n    function payout() view public returns(uint256){\n        if (attended == 0) return 0;\n        return uint(totalBalance()) / uint(attended);\n    }\n\n    function endEvent() external onlyOwner onlyActive{\n        payoutAmount = payout();\n        ended = true;\n        endedAt = block.timestamp;\n    }\n\n    function cancel() external onlyOwner onlyActive{\n        payoutAmount = requiredDeposit;\n        cancelled = true;\n        ended = true;\n        endedAt = block.timestamp;\n    }\n\n    function clear() external onlyOwner onlyEnded{\n        require(block.timestamp > endedAt + coolingPeriod);\n        uint leftOver = totalBalance();\n        address owner=owner();\n        payable(owner).transfer(leftOver);\n    }\n\n    function setLimitOfParticipants(uint _maxParticipants) external onlyOwner onlyActive{\n        maxParticipants = _maxParticipants;\n    }\n\n    function changeName(string memory _eventName) external onlyOwner noOneRegistered{\n        eventName = _eventName;\n    }\n\n    function attend(address[] memory _addresses) external onlyAdmin onlyActive{\n        for( uint i = 0; i < _addresses.length; i++){\n            address _addr = _addresses[i];\n            require(isRegistered(_addr));\n            require(!isAttended(_addr));\n            participants[_addr].attended = true;\n            attended++;\n        }\n    }\n}",
  "sourcePath": "/Users/nerdjango/Documents/GitHub/noBlock-noParty/contracts/Event.sol",
  "compiler": {
    "name": "solc",
    "version": "0.8.10+commit.fc410830.Emscripten.clang"
  },
  "schemaVersion": "3.4.3",
  "updatedAt": "2021-11-29T11:42:58.729Z",
  "networkType": "ethereum",
  "devdoc": {
    "kind": "dev",
    "methods": {
      "destroy()": {
        "details": "Transfers the current balance to the owner and terminates the contract."
      },
      "getRoleAdmin(bytes32)": {
        "details": "Returns the admin role that controls `role`. See {grantRole} and {revokeRole}. To change a role's admin, use {_setRoleAdmin}."
      },
      "getRoleMember(bytes32,uint256)": {
        "details": "Returns one of the accounts that have `role`. `index` must be a value between 0 and {getRoleMemberCount}, non-inclusive. Role bearers are not sorted in any particular way, and their ordering may change at any point. WARNING: When using {getRoleMember} and {getRoleMemberCount}, make sure you perform all queries on the same block. See the following https://forum.openzeppelin.com/t/iterating-over-elements-on-enumerableset-in-openzeppelin-contracts/2296[forum post] for more information."
      },
      "getRoleMemberCount(bytes32)": {
        "details": "Returns the number of accounts that have `role`. Can be used together with {getRoleMember} to enumerate all bearers of a role."
      },
      "grantRole(bytes32,address)": {
        "details": "Grants `role` to `account`. If `account` had not been already granted `role`, emits a {RoleGranted} event. Requirements: - the caller must have ``role``'s admin role."
      },
      "hasRole(bytes32,address)": {
        "details": "Returns `true` if `account` has been granted `role`."
      },
      "owner()": {
        "details": "Returns the address of the current owner."
      },
      "renounceOwnership()": {
        "details": "Leaves the contract without owner. It will not be possible to call `onlyOwner` functions anymore. Can only be called by the current owner. NOTE: Renouncing ownership will leave the contract without an owner, thereby removing any functionality that is only available to the owner."
      },
      "renounceRole(bytes32,address)": {
        "details": "Revokes `role` from the calling account. Roles are often managed via {grantRole} and {revokeRole}: this function's purpose is to provide a mechanism for accounts to lose their privileges if they are compromised (such as when a trusted device is misplaced). If the calling account had been revoked `role`, emits a {RoleRevoked} event. Requirements: - the caller must be `account`."
      },
      "revokeRole(bytes32,address)": {
        "details": "Revokes `role` from `account`. If `account` had been granted `role`, emits a {RoleRevoked} event. Requirements: - the caller must have ``role``'s admin role."
      },
      "supportsInterface(bytes4)": {
        "details": "See {IERC165-supportsInterface}."
      },
      "transferOwnership(address)": {
        "details": "Transfers ownership of the contract to a new account (`newOwner`). Can only be called by the current owner."
      }
    },
    "version": 1
  },
  "userdoc": {
    "kind": "user",
    "methods": {},
    "version": 1
  }
}